:020000040800F2
:10000000801000209D010008831E0008BD1D00080F
:10001000811E00086706000827290008000000006C
:10002000000000000000000000000000ED210008BA
:100030006906000800000000A51E0008EF21000866
:10004000B7010008B7010008B7010008B7010008B0
:10005000B7010008B7010008B7010008B7010008A0
:10006000B7010008B7010008B7010008B701000890
:10007000B7010008B7010008B7010008B701000880
:10008000B7010008B7010008B7010008B701000870
:10009000B7010008B7010008B7010008B701000860
:1000A000B7010008B7010008B7010008B701000850
:1000B000B7010008B7010008B7010008B701000840
:1000C000B7010008B7010008B7010008B701000830
:1000D000B7010008B7010008B7010008B701000820
:1000E000B7010008B7010008B7010008B701000810
:1000F000B7010008B7010008ED220008B7010008A9
:10010000B7010008B7010008B7010008B7010008EF
:10011000B7010008B7010008B7010008B7010008DF
:10012000B7010008B7010008B7010008B7010008CF
:10013000B7010008B7010008B7010008B7010008BF
:10014000B7010008B7010008B7010008B7010008AF
:10015000B7010008B7010008B7010008B70100089F
:10016000B7010008B7010008B7010008B70100088F
:10017000B7010008B7010008B7010008000000003F
:10018000B7010008B7010008DFF80CD000F04AFA08
:1001900000480047D1290008801000200648804709
:1001A00006480047FEE7FEE7FEE7FEE7FEE7FEE75C
:1001B000FEE7FEE7FEE7FEE7992200088901000856
:1001C0002DE9FE4F81EA030404F0004421F00041D0
:1001D00000944FF0000B23F0004350EA01045ED07E
:1001E00052EA03045BD0C3F30A54C1F30A552C440A
:1001F000A4F2F3340194A0FB0254C1F3130141F4BF
:100200008011C3F3130343F4801301FB024400FB8A
:10021000034E840A970A44EA815447EA8357A4FBB1
:10022000076802958D0A05FB07854FEA932C04FBAE
:100230000C542705029D4FEA065847EA1637B5EBDE
:1002400008056EEB070C870E920E47EA811742EA0B
:100250008312A7FB0201B6EB0B0164EB00042B0D2C
:1002600043EA0C335E1844EB1C50DA465146E7FB78
:100270000201C5F313044FEA0B3343EA14534FEA68
:100280000432019C43EA0603A4F10C040294009C8E
:10029000CDE900B400F026F903B0BDE8F08F0020EE
:1002A0000146F9E72DE9F04D81EA030404F0004B23
:1002B00021F0004514464FF0000A23F0004150EAB7
:1002C000050220D054EA01021DD0C5F30A570246A8
:1002D000C5F31303C1F31300C1F30A5640F48015AC
:1002E00043F48013A7EB0608101BD64608F2FD382E
:1002F00073EB050002D308F1010801E092185B419D
:10030000B8F1000F03DA00200146BDE8F08D0020AF
:100310004FF48011064684460EE0171B73EB050769
:1003200005D3121B63EB050306434CEA010C490895
:100330004FEA300092185B4150EA0107EDD152EAD2
:10034000030012D082EA040083EA0501084305D0C5
:10035000101BAB4106D20122002306E000224FF021
:10036000004302E06FF0010253101AEB06004CEB61
:10037000085110EB0A0041EB0B01BDE8F04D00F015
:10038000A2B80EB540F2334102910021CDE900112F
:100390000A460B4600F0A6F803B000BD70B5C1F3E5
:1003A0000A5201F000450024C1F3130140F2FF336B
:1003B00041F480119A4201DA002070BD40F23343CB
:1003C0009A42A2F2334203DC524200F035F800E0D8
:1003D00090402C43F1D0404270BD00F0004230F01C
:1003E00000400AD0C10D01F56071C0F3160042EA69
:1003F0000151C20840071143704700200146704771
:1004000001F0004330B421F0004150EA010206D06F
:100410000A0DA2F56072C1F31301002A02DC30BCA0
:1004200000207047440F44EAC104C100E01830BC0A
:1004300000EBC25000F010B8202A04DB203A21FA69
:1004400002F00021704721FA02F3D040C2F12002ED
:1004500091400843194670470029A8BF7047401CC7
:10046000490008BF20F00100704710B4B0FA80FCCA
:1004700000FA0CF050EA010404BF10BC704749B107
:10048000CCF1200421FA04F411FA0CF118BF012177
:1004900021430843A3EB0C01CB1D4FEA00614FEA57
:1004A000102042BF002010BC704700EBC350104426
:1004B0000029A4BF10BC7047401C490008BF20F0B1
:1004C000010010BC704710B5141E73F1000408DA67
:1004D000401C41F1000192185B411A4301D120F008
:1004E000010010BD2DE9F04D92469B4611B1B1FAC5
:1004F00081F202E0B0FA80F22032904600F0A4F8D7
:1005000004460F4640EA0A0041EA0B0153465A46A8
:10051000084313D0114653EA010019D0C8F1400234
:100520005046FFF789FF05460E465046594642465B
:1005300000F08AF8084305D0012004E0204639463F
:10054000BDE8F08D0020054346EAE0762C433743B2
:100550000A986305E40AA0EB08000022FD0A44EAB9
:1005600047540A3002D500200146E9E70105101979
:100570006941DDE9084500196941BDE8F04DA2E790
:100580002DE9F04D00231A461B1A8A4103DB002097
:100590000146BDE8F08DC1F30A52C1F3130141F4E5
:1005A00080154FF0000BD10702D100186D41521E8B
:1005B0000027044640F2FF11384601EB620A3E462E
:1005C0008046024600204FF48011FFF735FFC21924
:1005D0007141BB1846EB0100B4EB030C75EB000C4A
:1005E00004D3E41A65EB000517460E46241908F1FA
:1005F00001006D4180463428E3DDF91946EB060021
:10060000091BA84103D24FF0FF32134601E000223C
:1006100013461BEB070046EB0A51BDE8F04DFFF710
:1006200052BF0000064C074D06E0E06840F00103B1
:1006300094E8070098471034AC42F6D3FFF7A8FDC2
:10064000142A0008342A0008202A04DB203A00FA81
:1006500002F1002070479140C2F1200320FA03F319
:10066000194390407047FEE7704731B500F0F4F948
:10067000009C0546601C00D0641C00F0EDF9401B96
:10068000A042FAD338BD00002DE9F84F0446A04837
:100690000D4684421BD09F48844218D09E48844215
:1006A00015D09E48844212D09D4884420FD09D4868
:1006B00084420CD09C48844209D09C48844206D095
:1006C0009B48844203D0C5219AA002F07FF9286894
:1006D0000104090C01D0000C03D0C62195A002F042
:1006E00075F96868F8B101281DD011281BD00228BF
:1006F00019D0122817D09E49884214D09D498842AB
:1007000011D09D4988420ED09C4988420BD09C490B
:10071000884208D09B49884205D0032803D0C721CE
:1007200084A002F053F9A86838B1012805D0022846
:1007300003D0C8217FA002F049F900264FF0010B39
:100740000BFA06F02F688246074057457ED168684D
:10075000022801D012282ED12869F8B109281DD00D
:1007600001281BD0022819D0032817D0042815D03F
:10077000052813D0062811D007280FD008280DD03F
:100780000A280BD00B2809D00C2807D00D2805D03B
:100790000F2803D0D92167A002F018F9F00804EB64
:1007A0008002106A7107CB0E0F2199408843296996
:1007B00099400143116220687200032101FA02F896
:1007C0002979914601F0030120EA080001FA09F1B4
:1007D000014321606868012805D0022803D0112850
:1007E00001D012281CD1E86848B1012807D002289E
:1007F00005D0032803D0EC214EA002F0E7F8A06852
:10080000E96820EA080001FA09F10143A160606883
:10081000297920EA0A00C1F30011B1400143616067
:10082000E068A96820EA080001FA09F10143E160E3
:100830006868C00065D55448016841F48041016092
:10084000006826F0030100F4804000E059E00090C9
:100850004E480A18D2F80808B1070B0F0F2199402B
:1008600088432B498C4201D1002123E029498C4245
:1008700001D101211EE028498C4201D1022119E059
:1008800026498C4201D1032114E025498C4201D133
:1008900004210FE023498C4201D105210AE02249BD
:1008A0008C4201D1062105E020498C4201D107216B
:1008B00000E0082199400143C2F80818344908684B
:1008C0006A68B843D20300D5384308603049091D2F
:1008D00008686A68B843920300D5384308602C4919
:1008E000083108686A68B843D20200D53843086006
:1008F00027490C3108686A68B843920200D538432A
:100900000860761C102EFFF41BAFBDE8F88F0000C6
:10091000000002400004024000080240000C0240B7
:10092000001002400014024000180240001C024067
:10093000002002402E2E2F447269766572732F5369
:10094000544D3332463478785F48414C5F44726985
:100950007665722F5372632F73746D3332663478F9
:10096000785F68616C5F6770696F2E6300000000DC
:1009700000001110000021100000311000001210C2
:1009800000002210000032104438024000300140C4
:10099000003C014070B50C00054604D14FF4C8710D
:1009A00003A002F013F82869204000D0012070BD98
:1009B0002E2E2F447269766572732F53544D333245
:1009C000463478785F48414C5F4472697665722F8F
:1009D0005372632F73746D3332663478785F686155
:1009E0006C5F6770696F2E630000000070B515467C
:1009F0000C00064604D140F2B11108A001F0E6FF58
:100A000045B1012D04D04FF4D97104A001F0DEFFEF
:100A1000B46170BD2004B06170BD00002E2E2F4463
:100A20007269766572732F53544D33324634787839
:100A30005F48414C5F4472697665722F5372632F31
:100A400073746D3332663478785F68616C5F677099
:100A5000696F2E63000000000148006870470000C5
:100A60000C00002002480168491C0160704700002A
:100A70000C0000200B4810B5016841F400710160C2
:100A8000016841F480610160016841F48071016096
:100A9000032000F0C9F8002000F006F800F018F874
:100AA000002010BD003C024010B5044607484FF43A
:100AB0007A710068B0FBF1F000F0D9FC0022214609
:100AC000501E00F061F8002010BD00001000002052
:100AD00010B5052000F0A8F8002211466FF00B00B9
:100AE00000F052F8002211466FF00A0000F04CF8B6
:100AF000002211466FF0090000F046F8002211466E
:100B0000501F00F041F800221146101F00F03CF881
:100B100000221146901E00F037F80022BDE8104078
:100B20001146501E00F030B810B5040003D5D02196
:100B300006A001F04BFF04F01F010120884061096D
:100B4000890001F1E021C1F8000110BD2E2E2F44D3
:100B50007269766572732F53544D33324634787808
:100B60005F48414C5F4472697665722F5372632F00
:100B700073746D3332663478785F68616C5F636F6D
:100B8000727465782E63000070B515460C460646F3
:100B9000102A03D3BC2114A001F018FF102C03D39A
:100BA000BD2111A001F012FF1E480068C0F302230E
:100BB000C3F107022046042A00D90422191D07297F
:100BC00001D2002300E0DB1E012404FA02F1491ED9
:100BD000014099409C40641E2C4021433046BDE8B2
:100BE000704001F04FB900002E2E2F4472697665D7
:100BF00072732F53544D3332463478785F48414CEA
:100C00005F4472697665722F5372632F73746D330C
:100C100032663478785F68616C5F636F7274657890
:100C20002E6300000CED00E010B5044607280BD041
:100C3000062C09D0052C07D0042C05D0032C03D09A
:100C4000A42108A001F0C2FE154904F007020868BB
:100C50004FF6FF03184040EA0220124A1043086092
:100C600010BD00002E2E2F447269766572732F53CB
:100C7000544D3332463478785F48414C5F44726952
:100C80007665722F5372632F73746D3332663478C6
:100C9000785F68616C5F636F727465782E630000C3
:100CA0000CED00E00000FA052DE9F047044600686D
:100CB0000D46401E0E2804D940F2352189A001F0CE
:100CC00085FE95B1012D10D0022D0ED0032D0CD034
:100CD000042D0AD0052D08D0062D06D0072D04D0EE
:100CE00040F236217FA001F071FEDFF83092D9F892
:100CF000000000F00F01E8B28046A94208D2014688
:100D000089F80010D9F8000000F00F00A84272D155
:100D10002078834E80071CD5A068A0B1802812D00F
:100D2000902810D0A0280ED0B0280CD0C0280AD00F
:100D3000D02808D0E02806D0F02804D040F24D2179
:100D400068A001F043FE3068A16820F0F00008437D
:100D500030602078C00767D0714F6068083F88B165
:100D6000012827D0022828D0032826D04FF4157157
:100D70005CA001F02BFE606801281BD002281CD06B
:100D800003281AD03868800700285BDA3068616869
:100D900020F0030008433060FFF75EFE61680746FD
:100DA00041F28830012911D002291DD00329824641
:100DB00027D035E038688003E6E738688001E3E74C
:100DC000FFF74AFEC11B514501D926E08246306833
:100DD000C0F381000128F3D126E000BFFFF73CFEFD
:100DE000C11B514501D918E082463068C0F381002B
:100DF0000228F3D118E025E0FFF72EFEC11B514574
:100E00000BD83068C0F381000328F5D10CE000BF97
:100E1000FFF722FEC11B514502D90320BDE8F08730
:100E2000306810F00C0FF3D1D9F80010484601F0EB
:100E30000F01A94208D980F80080006800F00F0077
:100E4000A84201D00120E9E720784FF480554007FF
:100E50004FF4A0574FF4C0584FF4E05914D5E06850
:100E600060B1A8420AD0B84208D0404506D04845F3
:100E700004D040F2B2211BA001F0A8FD3068E16867
:100E800020F4E050084330602078000715D5206931
:100E900060B1A8420AD0B84208D0404506D04845C3
:100EA00004D040F2B9210FA001F090FD3068216913
:100EB00020F4604040EAC100306000F043F831683F
:100EC000F02292FAA2F201F0F001B2FA82F2D140DD
:100ED000144A515CC840144908600020FFF7E4FD43
:100EE00000209BE72E2E2F447269766572732F5374
:100EF000544D3332463478785F48414C5F447269D0
:100F00007665722F5372632F73746D333266347843
:100F1000785F68616C5F7263632E6300003C02401F
:100F200008380240042A000810000020014901206E
:100F3000C8647047000047420148006870470000DD
:100F40001000002030B51948006810F00C01184856
:100F500012D0441004290ED008290DD11349091FBD
:100F60000A6802F03F030A68550247F6C07204D5CA
:100F7000B4FBF3F003E0204630BDB0FBF3F00B68A8
:100F80000968134092FAA2F2B2FA82F2D3405843AF
:100F90004FF4403292FAA2F201F44031B2FA82F2F6
:100FA000D140491C4900B0FBF1F030BD0838024087
:100FB0000024F4002DE9F84F044600680F2803D9F7
:100FC000F321F7A001F002FDDFF80C942078A9F1DD
:100FD000040BC007ABF1040556D060684FF48036AF
:100FE0004FF4A02738B1B04205D0B84203D0F82161
:100FF000EBA001F0EBFCD9F800104846C1F38101E9
:10100000012908D00068C0F3810002280AD1DBF86A
:101010000000400206D52868800335D560680028A6
:101020007ED031E06068B04203D1286840F480305F
:101030000CE0B842286803D140F480202860F4E72F
:1010400020F480302860286820F4802028606068C0
:1010500068B1FFF701FD064605E000BFFFF7FCFCA5
:10106000801B64287ED828688003F7D50CE0FFF742
:10107000F3FC064605E000BFFFF7EEFC801B64288A
:10108000F0D828688003F7D42078D44F80074FF039
:10109000010A4FF0000855D5E06830B1012804D0AE
:1010A0004FF49571BEA001F091FC20691F2804D96E
:1010B00040F22B11BAA001F089FCD9F80010484683
:1010C00011F00C0F08D00068C0F3810002280AD18B
:1010D000DBF80000400206D42868800714D5E068D9
:1010E00001281DD110E0E068E8B1C7F800A0FFF7C3
:1010F000B3FC064605E000BFFFF7AEFC801B0228EC
:10110000B0D828688007F7D52868F82292FAA2F2AA
:101110002169B2FA82F220F0F8009140084300E021
:1011200029E128600EE0C7F80080FFF795FC06462D
:1011300005E000BFFFF790FC801B022892D82868CA
:101140008007F7D42078000730D5A54E6069E0B15C
:10115000012806D040F26B1191A001F037FC6069C4
:1011600098B100E045E1C6F800A0FFF775FC06461F
:1011700005E000BFFFF770FC801B0228C0D896482E
:101180006C3000688007F5D510E0C6F80080FFF7E6
:1011900063FC064605E000BFFFF75EFC801B0228EB
:1011A000AED88D486C3000688007F5D420784007B1
:1011B0005FD5A06840B1012806D0052804D040F2D0
:1011C000951177A001F002FC83483830016841F0A6
:1011D00080510160006800F08050009081480168F3
:1011E00041F480710160FFF737FC064605E000BF5F
:1011F000FFF732FC801B0228A0D87A480068C0059F
:10120000F6D5754EA068683601280FD005283068DD
:1012100010D020F001003060306820F00400306011
:10122000A068B8B1FFF718FC00900FE0306840F0FC
:101230000100F4E740F004003060F7E7FFF70CFC32
:101240000099411A41F28830814297D8306880076E
:10125000F4D50EE0FFF700FC009007E0FFF7FCFB81
:101260000099411A41F28830814287D8306880075E
:10127000F4D4A06900287DD0012809D0022807D025
:101280004FF4E57146A001F0A1FBA0690028F2D05F
:10129000D9F80000C0F3810002286CD0A0690228B0
:1012A00005D0C7F86080FFF7D7FB0446A4E0E069EB
:1012B00038B1B0F5800F04D040F2D31138A001F05E
:1012C00085FB206A3F2804D94FF4EA7134A001F06D
:1012D0007DFB606A3238B0F5BF7F04D940F2D5118A
:1012E0002FA001F073FBA06A02280AD0042808D0BE
:1012F000062806D0082804D04FF4EB7128A001F08E
:1013000065FBE06A801E0D2804D940F2D71124A0A5
:1013100001F05CFBC7F86080FFF79EFB064604E027
:10132000FFF79AFB801B022863D828688001F7D456
:10133000D4E90701084347F6C07292FAA2F2616A43
:10134000B2FA82F29140A26A4FF0FF3303EB5202ED
:101350004FF4403393FAA3F3B3FA83F39A40114363
:1013600008434FF0706292FAA2F2E16AB2FA82F296
:10137000914001E043E044E00843CBF80000C7F8A7
:1013800060A0FFF769FB044605E000BFFFF764FBC0
:10139000001B02282DD828688001F7D52FE0000017
:1013A0002E2E2F447269766572732F53544D33324B
:1013B000463478785F48414C5F4472697665722F95
:1013C0005372632F73746D3332663478785F68615B
:1013D0006C5F7263632E630008380240000047426E
:1013E000800E474200700040FFF736FB001B0228CA
:1013F00002D90320BDE8F88F28688001F4D40020CA
:10140000F8E70120F6E7000010B54FF0E0240428CB
:1014100009D020B140F2DB1105A001F0D7FA206914
:1014200020F0040002E0206940F00400206110BDBB
:101430002E2E2F447269766572732F53544D3332BA
:10144000463478785F48414C5F4472697665722F04
:101450005372632F73746D3332663478785F6861CA
:101460006C5F636F727465782E630000704710B50F
:10147000401EB0F1807F01D3012010BD4FF0E02469
:1014800060610F21601700F0FDFC0020A0610720C3
:101490002061002010BD10B5FFF7E8FF10BD00006F
:1014A00010B504004CD03048226882422AD0B2F1F4
:1014B000804F27D02D48824224D02D48824221D00F
:1014C0002C4882421ED02C4882421BD02B4882429C
:1014D00018D02B48824215D02A48824212D02A487E
:1014E00082420FD0294882420CD02948824209D03A
:1014F0002848824206D02848824203D0D92127A01A
:1015000001F064FAA06858B1102809D0202807D04B
:10151000402805D0602803D0DA2120A001F056FA37
:10152000206948B1B0F5807F06D0B0F5007F03D0C8
:10153000DB211AA001F04AFA94F8390010B107E053
:10154000012010BD002084F83800204600F042F849
:10155000022084F83900211D206800F08DFF012051
:1015600084F83900002010BD000001400004004054
:1015700000080040000C0040001000400014004033
:101580000004014000400140004401400048014087
:1015900000180040001C0040002000402E2E5C443B
:1015A0007269766572735C53544D33324634787881
:1015B0005F48414C5F4472697665725C5372635C4C
:1015C00073746D3332663478785F68616C5F746908
:1015D0006D2E630008B500680649884208D10648A8
:1015E000016841F002010160006800F00200009013
:1015F00008BD0000000401404438024010B5044614
:1016000001681E4881422BD0B1F1804F28D01C4880
:10161000814225D01B48814222D01B4881421FD0E5
:101620001A4881421CD01A48814219D01948814277
:1016300016D01948814213D01848814210D018485A
:1016400081420DD0174881420AD01748814207D005
:101650001648814204D04FF49A7115A001F0B6F9F2
:10166000022084F839002068016841F0010101601E
:10167000012084F83900002010BD00000000014066
:101680000004004000080040000C00400010004032
:1016900000140040000401400040014000440140AB
:1016A0000048014000180040001C0040002000409D
:1016B0002E2E5C447269766572735C53544D3332DE
:1016C000463478785F48414C5F4472697665725C55
:1016D0005372635C73746D3332663478785F68611B
:1016E0006C5F74696D2E63002DE9F05F044690F81D
:1016F00038000D46012844D0012084F8380002202B
:1017000084F839002868B0F5805F16D0B0F5005F26
:1017100013D090B1102810D020280ED030280CD033
:1017200040280AD0502808D0602806D0702804D05D
:1017300040F67971F4A001F049F92068816821F040
:10174000770121F47F4181602868FD49FD4AFE4B05
:10175000FE4EFF4FDFF8FC83DFF8FCB3DFF8FCE35D
:10176000DFF8FC934FF0804C4FF4004A50287DD0B6
:101770000FDC20287BD007DC002879D0102878D116
:1017800097E10220BDE8F09F302873D04028F6D1C1
:1017900039E160286FD070287AD0B0F5805F44D0EE
:1017A0004FF400584045EAD1206888420ED0604589
:1017B0000CD090420AD0984208D0B04206D0B8422D
:1017C00004D040F6A671D0A001F000F96868504539
:1017D00009D040B1022806D00A2804D040F6A871EA
:1017E000C9A001F0F3F8A86860B1B0F5805F09D036
:1017F000404507D0B0F5405F04D040F6A971C2A0C3
:1018000001F0E4F8E8680F2804D940F6AA71BEA0F8
:1018100001F0DCF8D5E90121EB68206800F004FF55
:101820002068816841F4804173E0206888422AD0B2
:10183000604528D0904226D0984224D0B04222D091
:10184000C84988421FD0C84988421CD0B8421AD023
:10185000404518D0584516D0704514D0484512D090
:10186000C24988420FD0C249884206E053E039E1BC
:1018700006E1C1E087E18BE00AE004D040F6857123
:10188000A1A001F0A3F82068816821F0070140E0E1
:10189000206888420ED060450CD090420AD0984211
:1018A00008D0B04206D0B84204D040F68E7196A05F
:1018B00001F08CF86868504509D040B1022806D084
:1018C0000A2804D04FF479618FA001F07FF8A8684E
:1018D00068B1B0F5805F0AD0B0F5005F07D0B0F511
:1018E000405F04D040F6917187A001F06FF8E8687E
:1018F0000F2804D940F6927183A001F067F8D5E96A
:101900000121EB68206800F08FFE2068816841F0BB
:101910007701816070E0206888421CD060451AD051
:10192000904218D0984216D0B04214D0B84212D08B
:10193000404510D058450ED070450CD048450AD0CF
:101940008A49884207D08A49884204D040F6B87153
:101950006DA001F03BF86868504509D040B10228FD
:1019600006D00A2804D040F6BB7167A001F02EF81B
:10197000E8680F2804D940F6BC7163A001F026F88E
:10198000EA686968206800F0ABFF5021206831E008
:101990002068884212D0604510D090420ED0984204
:1019A0000CD0B0420AD0B84208D0404506D04845D5
:1019B00004D040F6C67154A001F008F8686850459C
:1019C00009D040B1022806D00A2804D040F6C971D7
:1019D0004DA000F0FBFFE8680F2804D940F6CA715B
:1019E00049A000F0F3FFEA686968206800F089FF09
:1019F0006021206800F022FE012084F839000020D8
:101A000084F83800BEE6206888421CD060451AD0B1
:101A1000904218D0984216D0B04214D0B84212D09A
:101A2000404510D058450ED070450CD048450AD0DE
:101A30004E49884207D04E49884204D040F6D471BE
:101A400031A000F0C3FF6868504509D040B10228BA
:101A500006D00A2804D040F6D7712BA000F0B6FFBC
:101A6000E8680F2804D940F6D87127A000F0AEFF2F
:101A7000EA686968206800F033FF40212068B9E710
:101A80002068884212D0604510D090420ED0984213
:101A90000CD0B0420AD0B84208D0404506D04845E4
:101AA00004D040F6E27118A000F090FF00212068F9
:101AB000A0E72068884212D0604510D090420ED036
:101AC00098420CD0B0420AD0B84208D0404506D067
:101AD000484504D040F6E8710BA000F077FF1021D4
:101AE000206887E7206888424AD0604548D0904205
:101AF00046D0984244D0B04242D0B84240D040454F
:101B00003ED048453CD035E02E2E5C447269766567
:101B100072735C53544D3332463478785F48414C8D
:101B20005F4472697665725C5372635C73746D3383
:101B300032663478785F68616C5F74696D2E63001B
:101B4000000001400004004000080040000C00407C
:101B500000040140004001400044014000480140B1
:101B6000001800400010004000140040001C00401D
:101B70000020004040F6EE71AFF2740000F026FF46
:101B80002021206836E72068884213D0604511D0B4
:101B900090420FD098420DD0B0420BD0B84209D03D
:101BA000404507D0484505D040F6F471AFF2A80093
:101BB00000F00CFF302120681CE700002DE9F05FE9
:101BC0005FEA020A0D46044610D0BAF1040F0DD0A8
:101BD000BAF1080F0AD0BAF10C0F07D0BAF1180FFA
:101BE00004D040F6A1315CA000F0F0FE286870B18E
:101BF00010280CD020280AD0302808D0502806D031
:101C0000402804D040F6A23153A000F0DFFEA868BF
:101C100030B1022804D040F6A3314FA000F0D6FE28
:101C200094F8380001281ED04FF0010B84F838B02A
:101C3000022084F83900564B5649574E574FDFF86B
:101C400060C1DFF86091584A4FF08048BAF1000F48
:101C50000CD0BAF1040F30D0BAF1080F48D0BAF165
:101C60000C0F72D15BE00220BDE8F09F2068984223
:101C70001ED040451CD088421AD0B04218D0B8427D
:101C800016D0604514D0484512D0484988420FD03C
:101C9000474988420CD090420AD04649884207D032
:101CA0004549884204D040F6AE312BA000F08EFEAC
:101CB0002946206800F0CAFC47E02068984212D00C
:101CC000404510D088420ED0B0420CD0B8420AD065
:101CD000604508D0484506D0904204D040F6B63161
:101CE0001DA000F073FE2946206800F0DBFC2CE00C
:101CF000206898420ED040450CD088420AD0B042AD
:101D000008D0B84206D0604504D040F6BE3112A0DB
:101D100000F05CFE2946206800F020FD15E02068F8
:101D200098420ED040450CD088420AD0B04208D02C
:101D3000B84206D0604504D040F6C63106A000F097
:101D400045FE2946206800F079FD84F839B000206E
:101D500084F8380088E700002E2E5C4472697665AE
:101D600072735C53544D3332463478785F48414C3B
:101D70005F4472697665725C5372635C73746D3331
:101D800032663478785F68616C5F74696D2E6300C9
:101D9000000001400004004000080040000C00402A
:101DA0000004014000400140001800400044014090
:101DB00000480140001C004000200040FEE70000F9
:101DC00010B50C4C01212046FEF7E4FD38B9142073
:101DD000FEF74BFC01212046FEF7DCFD08B1002098
:101DE00010BD01212046FEF7D5FD0028F9D00120C5
:101DF00010BD00000010024070B51F4886B00024DE
:101E0000016841F010010160016801F010010591C5
:101E1000016841F01001016000680125CDE900541E
:101E200000F01000CDE90440144E6946029530469A
:101E3000FEF72AFC02208DE8310069463046049402
:101E4000FEF722FC04208DE83100694630460494F8
:101E5000FEF71AFC08208DE83100694630460494EC
:101E6000FEF712FC10208DE83100694630460494DC
:101E7000FEF70AFC06B070BD303802400010024088
:101E8000FEE770470907090E002806DA00F00F0088
:101E900000F1E02080F8141D704700F1E02080F888
:101EA00000147047704700002DE9F04F0546724856
:101EB00099462DED048B83B0904600780F4600289C
:101EC0007DD101266D4C002D07DA667001220821B4
:101ED0006B48FEF78BFD6D4206E000206070024605
:101EE00008216748FEF782FD012D71D0002D68D0D2
:101EF000DFF890A14FF0060BDAF80010B1FBFBF011
:101F000000EE100AB8EE400ADFED5F0A60EE200A2C
:101F100000EE109AB8EE400A80EE801ABDEEC10ABB
:101F200010EE100A206100EE107AF8EE400A9FEDE4
:101F3000571A81EE200A10EE100AFEF74EFA41EC15
:101F4000100B00F0F1FCDAF80010B0EE409AB1FB93
:101F5000FBF0F0EE609AFEF714FA9FED4D1B53EC88
:101F6000112BFEF72DF99FED4C8B53EC182BFEF740
:101F700099F9FEF745FAFEF730FA53EC192BFEF704
:101F80001FF953EC182BFEF78DF9FEF707FA606086
:101F900000EE107AB8EE400ADFED410AB2EE041A04
:101FA00009FB09F020EE200AC0EE010A00EE100A3B
:101FB000B8EE400A80EE201ABCEEC10A02E056E0FC
:101FC00006E038E010EE100A8DED000A48B109E095
:101FD0004FF0FF306061022020704FF47A70606033
:101FE00029E0009605FB08F007EB0801B0FBF1F0D3
:101FF000019000B90196DDE90010884201D8401B2C
:1020000004E001FB07F0B0FBF8F04042E060E0685C
:1020100010B94FF0FF30E060E0682844A0606068CD
:102020002169884204DC206960600320207000E0A0
:102030002670002060611048067010481830006853
:10204000416AADF800106168BDF800201144416399
:1020500001220021134800F06FFA03B00022BDEC0A
:10206000048B8021BDE8F04F0548FEF7BFBC03B0EC
:10207000BDEC048BBDE8F08F140000202800002088
:10208000000C02401000002072D9203C70594443DB
:102090006F1283C0CAA1E53F000000000000244089
:1020A000CF0F493E00040140F0B5234887B000251A
:1020B000016841F480710160016801F4807105914B
:1020C000016841F008010160016801F00801059113
:1020D000016841F0080101600068022400F0080076
:1020E00005902020CDE900040320CDE90340694696
:1020F0001248FEF7C9FA08200126CDE90006104F64
:1021000069463846CDE90345FEF7BEFA8020CDE9A1
:10211000000669463846CDE90345FEF7B5FA0022C8
:1021200008213846FEF762FC012280213846FEF77E
:102130005DFC07B0F0BD00003038024000200240D6
:10214000000C0240F0B526488DB00025016841F032
:1021500002010160006800F002000B90FFF7A4FF8D
:10216000214C204E052040C44FF6FF77A1C41E48E5
:1021700044F81059FFF794F9B014079007A91A48CA
:10218000FFF7B2FA3020CDE90007022002900820C4
:10219000CDE9030505950022694613480695FFF72A
:1021A0000DFD00221146304600F0C6F9002211460E
:1021B0002E20FEF7E9FC2E20FEF7B6FC2168E81E73
:1021C00008612068C16841F00201C1602068416C6B
:1021D00041F4004141640448FFF710FA0DB0F0BD2E
:1021E000443802400004014040000020704710B510
:1021F000FEF738FCBDE81040FFF74DB930B5244874
:1022000093B00025016841F080510160006800F042
:10221000805011901F48016841F4804101600068BE
:10222000022400F4804011900120009000040190ED
:102230008001CDE90640082008904FF4A870CDE950
:10224000090407200B906846FEF7B4FE0CA90F2086
:1022500081E831004FF4A0500F90E002109005216A
:102260000CA8FEF721FDFEF761FEFEF765FE4FF4B8
:102270007A71B0FBF1F0FFF7FAF80420FFF7C4F829
:1022800000221146501EFEF77FFC13B030BD000047
:1022900040380240007000401048016841F470016D
:1022A00001600F48016841F0010101600C4A002102
:1022B0000832116002680B4B1A400260031D0A4A83
:1022C0001A60026822F48022026005480C30016026
:1022D00002495806803908607047000088ED00E028
:1022E00000380240FFFFF6FE103000242DE9F843CD
:1022F0000027ADF800705C483C460168CA68D243CC
:1023000092077DD46FF002098046C1F810900068F2
:10231000416AADF80010544E183E7268BDF80010C6
:1023200011444163514D6878401C687068780228F8
:1023300066D16F70317841B101200223012916D096
:10234000022963D0032911D148E0AF60EF60002279
:102350001146474800F0F0F8D8F80010C1F8109086
:10236000012280214348FEF741FB2F7076E0A968E7
:10237000491CA96071780029696823D0491E6960E9
:102380007169491C71617168EA6802EB4101726907
:1023900000EB820291FBF2F17268511A8CB2716803
:1023A000EA6802EB4101726900EB820091FBF0F2F6
:1023B00000FB1210E860B068A968884204D8F06891
:1023C00070611FE0491CDAE73069A04246DB6C808F
:1023D0003069EF6084B2032030703FE0A868401C91
:1023E000A8607078002868680ED0401E6860306968
:1023F00084B2B068A968884230D8F068706100E0A3
:102400002DE06C88337029E0401CEFE7A968491C77
:10241000A96071780029696823D0491E69607169D3
:10242000491C71617168EA6802EB4101726900EB55
:10243000820291FBF2F17268511A8CB27168EA68FB
:1024400002EB4101726900EB820091FBF0F200FBAC
:102450001210E8607069002800DB37707460BDE816
:10246000F883491CDAE70000400000201400002037
:1024700000040140000C0240F0B50268234B244DDB
:10248000244E254F254C4FF0804C984209D0604592
:1024900007D0A84205D0B04203D0B84201D0A04234
:1024A00004D122F0700E4A6842EA0E0298421BD014
:1024B000604519D0A84217D0B04215D0B84213D009
:1024C000A04211D0164DA8420ED0164DA8420BD0F6
:1024D000154DA84208D0154DA84205D0144DA8426C
:1024E00002D0144DA84203D122F44075CA682A4391
:1024F00002608A68C2620A688262984201D0A04281
:1025000001D10969016301214161F0BD0000014071
:102510000004004000080040000C0040000401409E
:1025200000400140004401400048014000180040C4
:10253000001C00400020004070B5044621481646AB
:102540000D46844225D0B4F1804F22D01E488442EB
:102550001FD01E4884421CD01D48844219D01D48FB
:10256000844216D01C48844213D01C48844210D0A8
:102570001B4884420DD01B4884420AD01A4884422A
:1025800007D01A48844204D041F28A2118A000F0F2
:102590001DFA65B1042D0AD0082D08D00C2D06D0E7
:1025A000182D04D041F28B2111A000F00FFA012068
:1025B000216AA84081432162206AAE4030432062F4
:1025C00070BD000000000140000400400008004011
:1025D000000C004000040140004001400044014064
:1025E0000048014000180040001C0040002000404E
:1025F0002E2E5C447269766572735C53544D33328F
:10260000463478785F48414C5F4472697665725C05
:102610005372635C73746D3332663478785F6861CB
:102620006C5F74696D2E630010B5846842EA032202
:1026300024F47F440A432243826010BD826822F062
:1026400070020A4342F007018160704730B5026AA8
:1026500022F001020262026A436884690D6824F074
:102660007304254322F002048A6822430B4CA042E3
:1026700002D00B4CA0420BD122F00804CA6823F40C
:10268000407322434C6922F004021C438B692343AC
:102690004360856149684163026230BD00000140CA
:1026A000000401402DE9F0410446006A0D4620F087
:1026B00010002062206A6768A1692A6821F4E64157
:1026C00041EA0228A96820F0200040EA01161348D8
:1026D000844202D01248844217D1E86830B10828F9
:1026E00004D041F207210FA000F070F9E96826F04C
:1026F000800040EA011020F04006696927F440603C
:1027000040EA8100A96940EA81076760C4F818803F
:102710006868A0632662BDE8F08100000000014007
:10272000000401402E2E5C447269766572735C531E
:10273000544D3332463478785F48414C5F44726977
:102740007665725C5372635C73746D333266347891
:10275000785F68616C5F74696D2E63002DE9F041EC
:102760000446006A0D4620F480702062206A676883
:10277000E16920F4007021F07302296841EA02083F
:10278000A96840EA01261D48844202D01C488442C0
:102790002BD1E86830B1082804D041F2193119A0D2
:1027A00000F014F9A869B0F5007F05D020B141F21E
:1027B0001A3114A000F00AF96869B0F5807F05D0DD
:1027C00020B141F21B310FA000F000F9E96826F4B6
:1027D000006040EA012020F48066696927F44050D7
:1027E00040EA0110A96940EA01176760C4F81C803B
:1027F0006868E0632662BDE8F081000000000140E7
:10280000000401402E2E5C447269766572735C533D
:10281000544D3332463478785F48414C5F44726996
:102820007665725C5372635C73746D3332663478B0
:10283000785F68616C5F74696D2E63002DE9F0410B
:102840000446006A0D4620F480502062206A6668C3
:10285000E1692A6821F4E64141EA0228A96820F4E6
:10286000005040EA01370E48844202D00D488442AD
:102870000ED16869B0F5807F05D020B141F25F319B
:1028800009A000F0A3F8696926F4804040EA8116A7
:102890006660C4F81C80686820642762BDE8F08127
:1028A00000000140000401402E2E5C4472697665F0
:1028B00072735C53544D3332463478785F48414CE0
:1028C0005F4472697665725C5372635C73746D33D6
:1028D00032663478785F68616C5F74696D2E63006E
:1028E00010B5036A046A24F001040462846924F0C8
:1028F000F00444EA021423F00A020A4384610262EB
:1029000010BD10B5036A23F0100303628369046AE3
:1029100023F4704343EA023224F0A00343EA011196
:102920008261016210BDFEE700B52DED048BB0EEB3
:10293000409AF0EE609A83B051EC190BFDF720FE3F
:1029400041EC180B18EE100A18EE901A8DED008B62
:10295000002818BF0120084320F00040C0F17F602C
:1029600000F1E040C00F14D019EE101A19EE900AD1
:102970008DED009B002918BF0121084320F0004085
:10298000C0F17F6000F1E040C00F04BF012000F003
:1029900017F8B0EE480A03B0F0EE680ABDEC048BFD
:1029A00000BD02E008C8121F08C1002AFAD1704712
:1029B0007047002001E001C1121F002AFBD17047BF
:1029C000014908607047000024000020FEE7000075
:1029D000FEF750F8FFF712FCFFF70EFAFFF7B2FB15
:1029E000074C4FF4FA4500BFFFF7EAF90128FBD185
:1029F0002368A26861682846FFF756FAF4E70000EA
:102A0000000000200000000000000000010203049C
:102A100006070809342A00080000002028000000EA
:102A2000A22900085C2A0008280000205810000095
:102A3000B2290008B80B0000640000006400000028
:102A4000000000000024F40000000000000000006E
:0C2A50000000000000000000000000007A
:040000050800018965
:00000001FF
