:020000040800F2
:10000000A83E0020199B0008812D0008EBE700089E
:10001000832D0008872D00088B2D000800000000AC
:100020000000000000000000000000008F2D00080C
:10003000912D00080000000073E70008F72C00086D
:10004000339B0008339B0008339B0008339B000858
:10005000339B0008339B0008292500085D25000814
:1000600091250008339B0008C7250008339B000832
:10007000339B0008339B0008339B0008339B000828
:10008000339B0008339B0008339B0008339B000818
:10009000339B0008339B0008339B0008339B000808
:1000A000339B0008F1240008339B0008339B0008B1
:1000B00003250008172500086D230008339B00085E
:1000C000339B0008339B0008339B0008339B0008D8
:1000D000339B0008932D0008072E00089D2E000872
:1000E000339B0008339B0008339B000800F002F8A4
:1000F00000F063F80AA090E8000C82448344AAF15F
:100100000107DA4501D100F058F8AFF2090EBAE85C
:100110000F0013F0010F18BFFB1A43F0010318473B
:1001200028640100486401000A444FF0000C10F8F4
:10013000013B13F0070408BF10F8014B1D1108BF65
:1001400010F8015B641E05D010F8016B641E01F805
:10015000016BF9D113F0080F1EBF10F8014BAD1C55
:100160000C1B09D16D1E58BF01F801CBFAD505E073
:1001700014F8016B01F8016B6D1EF9D59142D6D3CD
:10018000704700000023002400250026103A28BFF5
:1001900078C1FBD8520728BF30C148BF0B607047F9
:1001A0001FB514F07DFA04000020002114F09CFA21
:1001B000401C60601FBD10B510BD14F04CFA114614
:1001C000FFF7EEFF00F017F814F07CFA03B4FFF726
:1001D000F2FF03BC14F080FA04460D4608A00CF0B0
:1001E0006AF8214610A00CF066F8294613A00CF01E
:1001F00062F800BFFEE710B502F052FA002010BD11
:100200000A0D2057726F6E6720706172616D6574A0
:1002100065722076616C75652064657465637465CC
:1002200064206F6E0D0A0000202020202020206610
:10023000696C65202025730D0A0000002020202015
:100240002020206C696E65202025640D0A000000C6
:1002500010B5012144F2050003F02DFD10BD08B5D5
:100260004FF48060ADF8000004208DF803000320F7
:100270008DF802006946FE4807F0B6FF4FF40070A3
:10028000ADF8000003208DF8020018208DF803005F
:100290006946F74807F0A8FF08BD08B54FF480602D
:1002A00009F048FB25208DF8000004208DF801009E
:1002B00001208DF802008DF80300684609F055FB17
:1002C00008BD1FB5FFF7C4FFFFF7C9FFFFF7E5FF44
:1002D0004FF4E13000900020ADF80400ADF80600C6
:1002E000ADF80800ADF80C000C20ADF80A00694626
:1002F000E04808F096FC012240F22551DD4808F064
:1003000001FE012240F22771DA4808F0FBFD0121CD
:10031000D84808F0CAFD1FBD70B505460E4600243A
:1003200000BF11E02A5DD4490888411CD24B1980D6
:10033000D2490A5418460088B0F5966F02DB0020B7
:1003400019460880601CC4B2B442EBDB012240F2C3
:100350002771C84808F0D6FD70BD10B5044610E0FE
:100360002278C5490888411CC34B1980C3490A54E7
:10037000641C18460088B0F5966F02DB0020194611
:10038000088020780028EBD1012240F22771B9487B
:1003900008F0B8FD10BD10B50121480403F0B4FC0D
:1003A00010BD08B50820ADF8000004208DF803004A
:1003B00003208DF802006946AD4807F015FF0420C0
:1003C000ADF8000003208DF8020018208DF803001E
:1003D0006946A74807F008FF08BD08B54FF48060DC
:1003E00009F0A8FA26208DF8000004208DF80100FD
:1003F00001208DF802008DF80300684609F0B5FA77
:1004000008BD1FB5FFF7C7FFFFF7CBFFFFF7E5FFFD
:100410004FF4165000900020ADF80400ADF806002F
:10042000ADF80800ADF80C000C20ADF80A006946E4
:10043000934808F0F6FB012240F22551904808F05D
:1004400061FD012240F227718D4808F05BFD01211A
:100450008B4808F02AFD1FBD70B505460E460024E6
:1004600000BF11E02A5D87490888411C854B19802F
:1004700085490A5418460088B0F5007F02DB002049
:1004800019460880601CC4B2B442EBDB012240F282
:1004900027717B4808F036FD70BD10B5044610E0AA
:1004A000227878490888411C764B198076490A548D
:1004B000641C18460088B0F5007F02DB0020194656
:1004C000088020780028EBD1012240F227716C4887
:1004D00008F018FD10BD10B50121880403F014FCCC
:1004E0000121212003F0E7FB10BD08B50121674879
:1004F00008F0B2F94FF40070ADF8000004208DF858
:1005000003006946624807F06FFE4FF48070ADF853
:10051000000003208DF8020018208DF803006946C2
:100520005B4807F061FE08BD08B527208DF8000084
:1005300004208DF8010001208DF802008DF80300E1
:10054000684609F012FA08BD1FB5FFF7C4FFFFF7B0
:10055000CCFFFFF7E9FF4FF4E13000900020ADF849
:100560000400ADF80600ADF80800ADF80C000C2052
:10057000ADF80A006946474808F053FB012240F2F3
:100580002551444808F0BEFC012240F22771414841
:1005900008F0B8FC01213F4808F087FC1FBD70B58A
:1005A00005460E46002400BF11E02A5D3A4908883E
:1005B000411C394B198039490A5418460088B0F556
:1005C000007F02DB002019460880601CC4B2B442E0
:1005D000EBDB012240F227712E4808F093FC70BD3E
:1005E00010B5044610E022782B490888411C2A4B9C
:1005F00019802A490A54641C18460088B0F5007F07
:1006000002DB00201946088020780028EBD1012267
:1006100040F227711F4808F075FC10BD08B5012194
:100620007C2003F048FB41F6BE00ADF8000010202E
:100630008DF8030003208DF8020069460C4807F08E
:10064000D3FD41F6BE010A4807F0D6FF4FF46870AB
:10065000ADF8000010208DF803006946104807F03F
:10066000C3FD4FF468710E4807F0C6FF3F2019E044
:10067000000801400038014002000020FC01002079
:100680000044004012000020380700203000140011
:10069000001401400048004022000020B80900205A
:1006A000000C0140ADF8000010208DF803006946F1
:1006B000FE4807F099FD3F21FC4807F09DFF802090
:1006C000ADF8000010208DF803006946F84807F0E7
:1006D0008BFD8021F64807F08FFF4FF46070ADF876
:1006E000000010208DF803006946F24807F07CFDF9
:1006F0004FF46071EF4807F07FFF40F24110ADF812
:10070000000018208DF803006946EB4807F06CFDE7
:1007100040F24111E84807F06FFF4020ADF80000BB
:1007200010208DF803006946E44807F05DFD402184
:10073000E24807F061FF08BD2DE9F05F07460E466D
:10074000904600250024A346102E18D008DC012E68
:100750000DD0022E0DD0042E0DD0082E17D10CE096
:10076000202E0ED0402E0ED0802E10D10DE0002570
:100770000FE001250DE002250BE0032509E004252B
:1007800007E0052505E0062503E0072501E0002533
:1007900000BF00BF012F06D0022F2DD0032F52D053
:1007A000042F76D176E005F0010020B14FF400610E
:1007B000C14807F0F6FE05F0020020B14FF4805169
:1007C000BD4807F0EEFE05F0040018B18021B948DD
:1007D00007F0E7FE4FF48071B64807F0E2FEB84C30
:1007E00001202146C87100208871B6480865DFF8ED
:1007F000D892DFF8D8A27AE005F0010018B1012103
:10080000AA4807F0CEFE05F0020018B10221A74861
:1008100007F0C7FE05F0040018B10421A34807F053
:10082000C0FE0821A14807F0BCFEA94C02202146C9
:10083000C871002088714FF080400865DFF89492FD
:10084000DFF894A253E005F0010018B108219A489E
:1008500007F0A7FE05F0020018B11021964807F036
:10086000A0FE05F0040018B12021934807F099FE7E
:1008700010218E4807F095FE984C03202146C87140
:100880000020887196480865DFF85892DFF858A272
:100890002DE02BE005F0010018B18021844807F01D
:1008A00080FE05F0020018B12021844807F079FE8F
:1008B00005F0040018B18021804807F072FE4FF463
:1008C00080717E4807F06DFE04208849C8710020C1
:1008D00088718748C1F84600084606717748C1F814
:1008E0004A004020C1F84E008B4600E000BF00BF28
:1008F000032F3ADC012F38DB2671C4F8348008FB63
:1009000006F0E06300202063A0635E2020835D206A
:100910006083C4F80C90C4F810A00020A08260711D
:10092000E0612062002506E0206930F81500E169E9
:100930000844E0616D1C208BA842F5D8002508E032
:100940002069218B294430F81100216A0844206273
:100950006D1C608BA842F3D8E0680088216D888503
:10096000E06800884010216D8886042F07D18BF83D
:100970000460CBF83A8008FB06F0CBF84200BDE8F3
:10098000F09F2DE9F04F81460020044605460646BB
:100990000746804600230022B9F1010F06D0B9F1C5
:1009A000020F05D0B9F1030F06D103E0444A07E076
:1009B000474A05E0494A03E000200146BDE8F08FC0
:1009C00000BFD069116A0844916A88423AD800236E
:1009D0000BE0106930F81300D16831F81310484368
:1009E000041945EBE07503F10103108B9842F0DC2C
:1009F000002310E01069118B194430F81100D16800
:100A0000B2F818A09A4431F81A104843041945EB7B
:100A1000E07503F10103508B9842EBDC906AD169D9
:100A2000401A116A401AD2F80CA0118B491E3AF8EC
:100A300011104843041945F10005906A116A401AE3
:100A400050628CE01AE0106930F81300D16831F878
:100A500013104843041945EBE075106930F8130092
:100A6000D16831F8131000FB01F0861947EBE077ED
:100A7000106930F81300804403F10103106930F865
:100A800013004044916AB0EB510FDCD9A4197D41A9
:100A9000106930F81300916A4FF0020A0AFB18112E
:100AA00088424CD2906A022124E0000000100140EC
:100AB000001401400018014000080140000C0140F2
:100AC00094260020002C0140380C0020AE0D0020A0
:100AD000E8260020240F00209A1000203C27002048
:100AE00000040040101200208613002090270020F0
:100AF0000008004001FB1800116921F813000020D4
:100B0000D0611062844607E0106930F81C00D1699A
:100B10000844D0610CF1010C108B6045F4DC4FF0FF
:100B2000000C09E01069118B614430F81100116A62
:100B3000084410620CF1010C508B6045F2DCD06867
:100B400030F81300916A4FF0020A0AFB1811414372
:100B50000C1945F10005906AA0EB080050629464FE
:100B6000D5642046294629E710B50446012C04D057
:100B7000022C0DD0032C21D115E001E001F0B8FCCE
:100B8000FE4880780128F9D0FC49086C496C10BDFA
:100B900001E001F0B6FCFA4880780128F9D0F84964
:100BA000086C496CF3E701E001F0B5FCF54880788A
:100BB0000128F9D0F349086C496CE8E700200146A8
:100BC000E5E72DE9F14F002500240098012804D025
:100BD00002280ED0032824D117E0E84CDFF8A883C0
:100BE000DFF8A893EA4EEB4FDFF8ACA3DFF8ACB325
:100BF00019E0E34CDFF8A883DFF8A893EA4EEB4F47
:100C0000DFF8ACA3DFF8ACB30DE0DE4CDFF8A8836F
:100C1000DFF8A893EA4EEB4FDFF8ACA3DFF8ACB3F4
:100C200001E0BDE8F88F00BF0020A060A0826071E5
:100C3000C4F80C80C4F81090E0612062002506E042
:100C4000206930F81500E1690844E0616D1C208BD3
:100C5000A842F5DC002508E02069218B294430F802
:100C60001100216A084420626D1C608BA842F3DCED
:100C7000E069216A0844A16A884243D9E660276195
:100C80000020E0612062002506E0206930F81500B0
:100C9000E1690844E0616D1C208BA842F5DC002569
:100CA00008E02069218B294430F81100216A0844AA
:100CB00020626D1C608BA842F3DCE069216A084465
:100CC000A16A88421ED9E66027610020E0612062A7
:100CD000002506E0206930F81500E1690844E0616C
:100CE0006D1C208BA842F5DC002508E02069218BD3
:100CF000294430F81100216A084420626D1C608B81
:100D0000A842F3DCE0680088216D8885E0680088EF
:100D10004010216D8886206D808D002120646164E3
:100D20000098FFF72EFE00BF7BE72DE9FF4F9BB039
:100D30000E4614461D46DDE9289A0021504614F05F
:100D4000DFFB35D82146504614F0DAFA30D8504649
:100D500014F042F907468846504614F03DF9CDE9B3
:100D60001001304614F038F90022994BCDE90C01FE
:100D700013F04AFFCDE90E01DDE9102313F044FF23
:100D80003A464346CDE9120113F03EFFCDE9160184
:100D90001B9814F021F9CDE91401DDE9162313F0B5
:100DA000EBFCCDE9180113F0B5FC1FB0BDE8F08FE6
:100DB0005146204614F0A4FA4ED22946204614F09B
:100DC00037F90746514614F09BFB45D8214650465B
:100DD00014F0C8FB8346314614F0C6FA804621461B
:100DE00014F0C2FA074614F0F7F8CDE916012046D0
:100DF00014F0F2F8CDE90E01204614F0EDF80746A4
:100E00008846304614F0E8F80022714BCDE908011D
:100E100013F0FAFE3A464346CDE90A0113F0F4FE18
:100E2000CDE90C01DDE90E2313F0EEFECDE9120150
:100E30001B9814F0D1F8CDE91001DDE9122313F06D
:100E40009BFCCDE91401DDE9162313F095FCCDE9F7
:100E5000180113F05FFCA8E72946204614F0E8F8D3
:100E60000746514614F04CFA7ED22946204614F02B
:100E7000DFF88046494614F0DBF80746514614F087
:100E80003FFB71D8484614F0A7F8CDE91201294676
:100E9000204614F0CDF88346494614F0C9F8804640
:100EA000514614F05FFB074614F096F8CDE90E01A9
:100EB0002946204614F0BCF84946089014F0B8F8CA
:100EC0005146099014F04EFB834614F085F807460E
:100ED0008846204614F080F8CDE90801304614F029
:100EE0007BF800223A4BCDE9040113F08DFECDE9E9
:100EF0000601DDE9082313F087FE3A464346CDE9B3
:100F00000A0113F081FECDE90C01DDE90E2313F097
:100F10007BFECDE91001DDE9122313F0E1FCCDE900
:100F20001601484614F058F8CDE90E01204614F099
:100F300053F8CDE90A01304614F04EF80746002276
:100F4000234B13F061FECDE90801DDE90A2313F01C
:100F50005BFECDE90C01DDE90E2313F055FECDE972
:100F600012013146284600E078E014F0FDF9804691
:100F7000214614F0F9F907462CE0000094260020E1
:100F8000E82600203C270020380C0020AE0D002071
:100F9000FC14002072160020C01D0020361F002007
:100FA000240F00209A100020E81700205E1900206E
:100FB000AC200020222200201012002086130020E6
:100FC000D41A00204A1C0020982300200E2500205F
:100FD0000000E03F14F000F8CDE90E01204613F0C8
:100FE000FBFFCDE90601204613F0F6FFCDE9020133
:100FF000304613F0F1FF0022FB4BCDE9000113F066
:1010000003FE0746DDE9022313F0FEFDCDE90401EE
:10101000DDE9062313F0F8FDCDE90A011B9813F072
:10102000DBFFCDE90801DDE90A2313F0A5FBCDE9DB
:101030000C01DDE90E2313F09FFBCDE91001DDE982
:10104000122313F099FBCDE91401DDE9162313F007
:10105000D9FECDE9180113F05DFBA6E60020A4E659
:101060002DE9FF4F85B09046994612ADE0CD0024A2
:1010700030E0204614F02CF9DC490490404614F08E
:1010800045F80390049914F06FF983464B464246A5
:10109000CDE90050DDE90501FFF747FE82465146E4
:1010A000D34814F033F8834614F0F2F826F814000D
:1010B000CE49404614F02AF85146039014F054F9F2
:1010C000CC49049014F022F8834614F0E1F827F894
:1010D0001400641C1F2CCCDB1F2435E0A4F11F007E
:1010E00014F0F6F8C1490390484614F00FF8029046
:1010F000039914F039F94146049013F099FF83469F
:101100004B464246CDE90050DDE90501FFF70DFEF3
:1011100082465146B64813F0F9FF834614F0B8F8FA
:1011200026F81400B149484613F0F0FF51460390E9
:1011300014F01AF9AF49049013F0E8FF834614F055
:10114000A7F827F81400641C3E2CC7DB3E243AE0C5
:10115000A4F13E0014F0BCF8A4490290284613F014
:10116000D5FF0190029914F0FFF8834649464046A6
:1011700013F05EFF5946039013F05AFF04904B465C
:101180004246CDE90050DDE90501FFF7CEFD82467C
:101190005146974813F0BAFF834614F079F826F8C1
:1011A00014009249284613F0B1FF5146039014F001
:1011B000DBF89049049013F0A9FF834614F068F817
:1011C00027F81400641C5D2CC2DB4946404613F02E
:1011D0002FFF2946049013F02BFF83464B464246CF
:1011E000CDE90050DDE90501FFF79FFD824651463C
:1011F0007F4813F08BFF834614F04AF8A6F8BA0034
:101200007A49284613F082FF5146039014F0ACF857
:101210007849049013F07AFF834614F039F8A7F860
:10122000BA005E240CE0C4F1BA0036F8100026F8CB
:101230001400C4F1BA0037F8100027F81400641C39
:10124000BB2CF0DB09B0BDE8F08F0EB56A486B49E6
:101250004FF080426A4BCDE90021029069496A480B
:10126000FFF7FEFE69486A494FF08042644BCDE9C2
:101270000021029063496448FFF7F2FE6548664921
:101280004FF080425E4BCDE9002102905D495E48FF
:10129000FFF7E6FE61486249624A4FF08143CDE9BB
:1012A0000021029060496148FFF7DAFE6048614919
:1012B0005C4A4FF08143CDE9002102905A495B48D6
:1012C000FFF7CEFE5C485D49564A4FF08143CDE9B9
:1012D0000021029054495548FFF7C2FE5848594929
:1012E000594A4FF08043CDE90021029057495848B0
:1012F000FFF7B6FE57485849534A4FF08043CDE9AF
:101300000021029051495248FFF7AAFE5348544920
:101310004D4A4FF08043CDE9002102904B494C48A3
:10132000FFF79EFE0EBD2DE9FF5F94B016461F46E7
:1013300014981390002012901190334810900F9041
:1013400001200E9000200D90824600BF4FF0FF3824
:101350004FF0FF090B900A9009900890149801280B
:1013600002D0022810D107E0DFF8F8A0DAF80CB0BC
:10137000DAF810000C9007E0DFF8ECA0DAF80CB017
:10138000DAF810000C9000BF00BFBAF1000F02D1D4
:1013900018B0BDE8F09F1B4811900020129094E116
:1013A0000E98F8B1DDE9111013F042FE019013F030
:1013B00013FE00224FF08043CDE9020113F090FAB2
:1013C000CDE9040113F0A6F907904FF080410C9885
:1013D0000B4B0A46CDE9001B02900B480799FFF71B
:1013E0003FFE59E042E000000000E03F0000F8410D
:1013F000001B374B00002041AE0D0020380C0020B0
:101400000000C0400080BB4500401C469A100020F0
:10141000240F0020861300201012002072160020D6
:10142000FC140020ABAAAA3F00007A455555D045D0
:101430005E190020E81700204A1C0020D41A002062
:10144000361F0020C01D0020ABAA2A3F0000FA442E
:101450005555504522220020AC2000200E250020AA
:101460009823002094260020E8260020DDE90F10B4
:1014700013F0DEFD4FF08041069013F047FE079019
:101480004FF080410C98FB4B0A46CDE9001B0290BF
:1014900000210798FFF7E4FD01208AF80000229858
:1014A0008AF8010001208AF802000020CAF82C0006
:1014B00023980D900021CAF84010CAF844109AF8F9
:1014C00004100D984143CAF828101399C8B2FFF7C9
:1014D00078FBDAF84840DAF84C50A01B75EB0700AF
:1014E00014D2311B67EB0500B1EB080170EB09006A
:1014F00020D2B6EB040867EB050912980B901198FF
:101500000A90109809900F98089013E0A11B65EBC2
:101510000700B1EB080170EB09000BD2B4EB060831
:1015200065EB070912980B9011980A901098099092
:101530000F9808908021711A67F10000611A75EB0D
:10154000000007D38021711847F10000091BA84152
:1015500000D3BBE00E9880B1119813F03DFDC64A50
:10156000C64BCDE9060113F013FB06D200200B9009
:101570000A90119012900E9010900E98002852D060
:10158000DDE9111013F0BCFF0DD2DDE9111013F0ED
:10159000E9FF059013F020FDB94ABA4BCDE90601E9
:1015A00013F0F6FA12D3DDE9111013F0A9FE0ED2F2
:1015B000DDE9110113F0D6FF059013F00DFDB04ADF
:1015C000B04BCDE9060113F0E3FA00D27EE0301B08
:1015D00077EB050013D2DDE9111013F029FD03901C
:1015E00013F0FAFC00224FF08043CDE9040113F020
:1015F00077F9CDE9060113F08DF8129065E0DDE989
:10160000111013F015FD039013F0E6FC00224FF0CB
:101610008043CDE9040113F063F9CDE9060113F02D
:1016200079F8119051E0DDE90F1013F069FF0DD248
:10163000DDE90F1013F096FF059013F0CDFC904AF2
:10164000904BCDE9060113F0A3FA12D3DDE90F1098
:1016500013F056FE0ED2DDE90F0113F083FF059063
:1016600013F0BAFC864A874BCDE9060113F090FAD5
:1016700000D22BE0301B77EB050013D2DDE90F1011
:1016800013F0D6FC039013F0A7FC00224FF0804328
:10169000CDE9040113F024F9CDE9060113F03AF87D
:1016A000109012E0DDE90F1013F0C2FC039013F06C
:1016B00093FC00224FF08043CDE9040113F010F9B0
:1016C000CDE9060113F026F80F9069E600BFDDE9C9
:1016D0000A1013F0ADFC019013F07EFC00224FF0D5
:1016E0008043CDE9020113F0FBF8CDE9040113F0CA
:1016F00011F80790DDE9081013F09AFC4FF08041D3
:10170000059013F003FD06904FF080410C98594B63
:101710000A46CDE9001B0290DDE90601FFF7A0FCB7
:1017200000BF35E62DE9F04107460D4616464FF05D
:10173000000800240EB9BDE8F081012F04D0022F6B
:1017400010D0032F27D11AE04F4C2DB94FF4007160
:101750004E4806F026FF04E04FF400714B4806F0B7
:101760004BFF19E04A4C012D04D10221494806F0F3
:1017700018FF03E00221474806F03EFF0CE0464C0C
:1017800025B98021434806F00CFF03E08021414841
:1017900006F032FF00E0CEE700BF01202070657048
:1017A000A0700020E062B0460021216461642079CD
:1017B00000FB08F0A0623846FFF703FA0020A08281
:1017C0006071E0680088216D8885E06800884010BD
:1017D000216D8886206D012103F06CFE00BFAAE711
:1017E0002DE9F04107460E4615464FF0000800244B
:1017F0000DB9BDE8F081042F0CD1284C26B9F901B0
:10180000274806F0CEFE04E04FF40071244806F0AD
:10181000F3FE00E0EDE700BF012020706670A070CD
:1018200000206071A846207900FB08F02061206943
:10183000400820621B4860611B48A061012084F8B9
:1018400034000020A0622063E061E0626062D4F8AE
:101850004600012103F02EFE00BFCAE770B5044622
:101860000D461646032C21DD324629462046FFF759
:1018700059FF20E00000C0409A9999999999B93F81
:101880007B14AE47E17A943F942600200018014073
:10189000E8260020000801403C2700209027002077
:1018A000000C014080380100F04902003246294610
:1018B0002046FFF795FF70BD2DE9F04107460C4625
:1018C00000250026012F06D0022F06D0032F06D0B8
:1018D000042F08D105E0FC4D07E0FC4D05E0FC4D70
:1018E00003E0FC4E01E0BDE8F08100BFF5B1686B9C
:1018F000A0421BD3286BA04218D0286BA04206D26E
:10190000286B221AA9793846FFF70CFF0AE0286BEA
:10191000021BA87908B9012000E0002001463846E2
:10192000FFF700FF00BFA8780128FCD01EB3D6F84F
:101930003A00A0421FD3D6F83600A0421BD0D6F8FA
:101940003600A04207D2D6F83600221AB1793846BE
:10195000FFF746FF0BE0D6F83600021BB07908B956
:10196000012000E0002001463846FFF739FF00BFA4
:10197000A8780128FCD000BFB5E72DE9FC478046D8
:101980000C4691461D464FF0000A00BF04B10DB948
:10199000BDE8FC87FFF759FC0120FFF712F9022090
:1019A000FFF70FF9AC4221D80120C849087008465A
:1019B00080F80180012088700020C862AA460021BA
:1019C000C24A116451641046007900FB0AF01146C6
:1019D00088620220FEF7D5FF06460F4632463B4698
:1019E0000120CDE90084FFF79EFC20E00120B649EC
:1019F0000870084680F80190012088700020C862B5
:101A0000A2460021B04A116451641046007900FBDF
:101A10000AF0114688620120FEF7B3FF06460F4622
:101A200032463B460220CDE90095FFF77CFC22467A
:101A300041460120FFF776FE2A4649460220FFF77D
:101A400071FE00BFA4E72DE9F05F83460E464FF01C
:101A5000000A00240025BBF1010F09D0BBF1020FE1
:101A600008D0BBF1030F07D0BBF1040F08D105E08C
:101A7000954C07E0954C05E0954C03E0954D01E051
:101A8000BDE8F09F00BF002C60D0206D002103F066
:101A900011FD002E25DB5D2E23DCA78A0020E062ED
:101AA000A08A218B884205DB208B618B0844A18AA8
:101AB000401A471EB74205DDE06A216A0844801ECD
:101AC000A06202E04FF0FF30A062A7822069A18AE5
:101AD00030F81100A060E68201206071A0702070D3
:101AE00030E000206071A78AA08A218B884205DB44
:101AF000208B618B0844A18A401A471E4FF00008D2
:101B000005E0206930F81800824408F10108B84562
:101B1000F7DBA08A218B884205DA208B618B084491
:101B2000A18A401A471EA7822069A18A30F81100B5
:101B3000A0600020E062E06A5044A062BAF1000FA9
:101B400000D19DE7206D012103F0B4FC002D4AD0A7
:101B5000D5F84600002103F0ADFC002E32DD142E36
:101B600030DC5D487043142190FBF1F96869484509
:101B700005D1D5F84600012103F09CFC80E795F8DB
:101B8000340028B90020A8622863E861E86268622E
:101B9000686948450AD995F8340018B1032085F8DA
:101BA000340006E0012085F8340002E0012085F8C9
:101BB00034004A48A861C5F8149001206871A870E3
:101BC00028700BE0A87800B95AE70020687103205C
:101BD00085F83400686AE96908442861D5F8460048
:101BE000012103F067FC00BF4AE72DE9F0410746F9
:101BF0000C4600250026012F06D0022F06D0032F09
:101C000006D0042F08D105E02F4D07E02F4D05E049
:101C10002F4D03E02F4E01E0BDE8F08100BFFDB184
:101C2000686BA04241D3286BA0423ED0286BA042F3
:101C300006D2286B221AA9793846FFF773FD0AE00D
:101C4000286B021BA87908B9012000E0002001469A
:101C50003846FFF767FD00BFA8780128FCD024E0D4
:101C60001EB3D6F83A00A0421FD3D6F83600A042E1
:101C70001BD0D6F83600A04207D2D6F83600221A7A
:101C8000B1793846FFF7ACFD0BE0D6F83600021B01
:101C9000B07908B9012000E0002001463846FFF77E
:101CA0009FFD00BFB0780128FCD000BFB4E770B53D
:101CB000064600240025012E12D0022E12D0032E3B
:101CC00012D0042E14D111E094260020E826002022
:101CD0003C2700209027002080380100F0490200B6
:101CE000FE4C06E0FE4C04E0FE4C02E0FE4D00E03F
:101CF00070BD00BF54B10120E070A07010213046CB
:101D0000FFF7A1FE00BFA0780128FCD055B101204B
:101D1000E870A87010213046FFF795FE00BFA87844
:101D20000128FCD000BFE3E770B504460E4600254D
:101D30002078AA2825D1E07818B9A078FFF7B7FF56
:101D40001FE0E078012805D1227951B2A078FFF791
:101D50007AFE16E0E078022805D1A0784FF0FF3136
:101D6000FFF771FE0DE0E07803280AD12079000426
:101D7000617900EB0120A1794518A0782946FFF789
:101D800034FF70BD08B52BE002226946D74800F049
:101D9000D5FE022824D19DF80000AA280FD19DF875
:101DA000010055280BD10722D149D04800F074FE1C
:101DB000072815D10721CE48FFF7B6FF10E09DF8A0
:101DC0000100AA2804D16946C84800F060FF07E076
:101DD0006946C64800F05BFF6946C44800F057FFFB
:101DE000C24800F0CCF90728CEDA08BD00B589B0AA
:101DF0000121C80201F05FFFBE4802F0F3F919208B
:101E00008DF8140001208DF8150000208DF81600C3
:101E100001208DF8170005A807F0A7FD4FF47A7090
:101E2000ADF81C000520ADF818000020ADF81E002C
:101E3000ADF81A008DF8200006A9AE4802F0DEFACF
:101E40007020ADF804000120ADF806000420ADF8C4
:101E500008003220ADF80A000220ADF80C00002086
:101E6000ADF80E00ADF81000ADF8120001A9A148C0
:101E700002F05EFB08219F4804F01EFA01219D48F4
:101E800004F030F901219B4805F050FC0122114675
:101E9000984803F094FB0021964803F00BFB0121C6
:101EA000944803F05AFB09B000BD00B589B0012188
:101EB000084601F029FF4FF0804002F093F91C2002
:101EC0008DF8140001208DF815008DF816008DF89E
:101ED000170005A807F049FD4FF47A70ADF81C0013
:101EE0000520ADF818000020ADF81E00ADF81A006E
:101EF0008DF8200006A94FF0804002F07FFA702094
:101F0000ADF804000120ADF806000420ADF808008B
:101F10003220ADF80A000220ADF80C000020ADF828
:101F20000E00ADF81000ADF8120001A94FF080408E
:101F300002F0FEFA0821C80604F0BEF90121880764
:101F400004F0D0F80121880705F0F0FB01221146CA
:101F5000900703F034FB00214FF0804003F0AAFA11
:101F600009B000BD00B589B00121022001F0CCFE0E
:101F7000614802F037F91D208DF8140002208DF819
:101F8000150000208DF8160001208DF8170005A817
:101F900007F0EBFC4FF47A70ADF81C000520ADF8AB
:101FA00018000020ADF81E00ADF81A008DF82000D2
:101FB00006A9514802F022FA7020ADF80400012071
:101FC000ADF806000420ADF808003220ADF80A0094
:101FD0000220ADF80C000020ADF80E00ADF81000A6
:101FE000ADF8120001A9444802F0A2FA08214248C3
:101FF00004F062F90121404804F074F801213E48E0
:1020000005F094FB012211463B4803F0D8FA002169
:10201000394803F04FFA09B000BD1FB50121042073
:1020200001F072FE1E208DF8000002208DF80100E4
:1020300001208DF802008DF80300684607F095FC3A
:102040001D20ADF808000E20ADF804000020ADF80A
:102050000A00ADF8060001A9284802F0CFF90121D5
:10206000264805F063FB01221146244803F0A7FA35
:102070000021224803F01EFA1FBD1FB50121412097
:1020800001F019FE1720ADF8040004208DF80700B8
:1020900001A91B4806F0A8F806208DF800000120D1
:1020A0008DF8010000208DF8020001208DF803005A
:1020B000684607F05AFC07208DF8000001208DF8D3
:1020C000010000208DF8020001208DF80300684611
:1020D00007F04BFC08208DF8000013E09426002048
:1020E000E82600203C270020902700202C07002015
:1020F00084260020002C014000040040000800401D
:102100000018014001208DF8010000208DF8020028
:1021100001208DF80300684607F027FC0A208DF89F
:10212000000001208DF8010000208DF80200012040
:102130008DF80300684607F018FC172002F020F81D
:102140000021042006F09CFC0121042006F098FCEC
:102150000221042006F094FC0421084606F090FCBD
:1021600000208DF80C000C208DF80D001720029037
:1021700001208DF80E0002A801F0D0FE1FBD01461F
:1021800000BF88884008CA88B0EB520F0BD108798D
:1021900000F001008A7902F00102904201D1002092
:1021A00002E0012000E0022020B1012804D0022832
:1021B00005D105E000207047088980B2FBE700BF29
:1021C000C88840088A88B0EB520F06DDC8884008EE
:1021D0008A88A0EB520080B2EDE788884008CA8860
:1021E000A0EB52000A89101A80B2E4E770B50446E9
:1021F0000025D4F84E00D4F84A104861A06AE16A7C
:102200000844A062A06A050CA06AA0EB0540A06289
:1022100065B3606A401C6062D4F84E00D4F84A107E
:102220000861A079617888420CD154F83E0F401CB7
:102230002060206861683E3C884210D30020C4F8CA
:102240003E000CE054F83E0F401E206054F83E095A
:10225000401C20B9D4F84200401EC4F83E00D4F817
:102260003E002179B0FBF1F0C4F83600607990B1FE
:10227000E06A6169884204D3E06A6169401A032810
:1022800008D9E06A6169884205D86069E16A401A44
:10229000032800D870BD94F83400012804D0022827
:1022A0002FD003285FD136E015B1E069401CE06112
:1022B000206BA16908442063206B450C206BA0EBC8
:1022C0004540206315B1E06A2844E062607970B946
:1022D000206A38B1606A216A884208D1032084F8F4
:1022E000340004E0606A10B1032084F83400E06A2E
:1022F0006169884204D36069E062022084F8340096
:1023000031E02069616A401AE169884202D80320FD
:1023100084F8340027E025B1E06910B1E069401E7F
:10232000E061206BA16908442063206B450C206BA1
:10233000A0EB454020632DB1E06AA84202D9E06AD3
:10234000401BE062607968B9606A2169884209D3FC
:10235000002084F83400A0706061D4F846000021A9
:1023600003F0A8F800BF00BF00BF93E710B54FF619
:10237000FE70A2490880A248FFF738FF10BD10B5D3
:102380000446207801287DD1A0796178884209D15E
:10239000A06B401CA063A06BE16B88420BD30020B4
:1023A000A06308E0A06B401EA063A06B401C10B9A6
:1023B000E06B401EA063A06B2179B0FBF1F02063BD
:1023C000607968B1A08AE18A884208D0E08AA18A4F
:1023D0000144208B628B1044401E814200D110BD0D
:1023E000E06A401CE062A068401CA060606AE16A8C
:1023F000884204D12069A18A30F81100A0602069C8
:10240000A18A30F81100A168884253D8E06AE169D6
:1024100088420FD8A18A208B401E81420ADAA08A06
:10242000401CA0820020A060A08A218B884201DB92
:10243000208BA082A06AE16A401A216A884202D8F1
:10244000607901280CD0A06AE16A401A216A8842AA
:1024500023D8607908BBE06AA16AB0EB510F1CD3A6
:10246000A18A208B401E814205DA208B618B0844B3
:10247000A18A401AA082A08A401CA0820020A060ED
:10248000208B00E032E0618B0844A18A884204DCA2
:10249000208B618B0844401EA082E068A18A30F83E
:1024A0001100216D8885E068A18A30F81100401084
:1024B000216D8886E06AA16A88420ED3E06A03280B
:1024C0000BD900202070A070A082206D002102F0A6
:1024D000F1FF4CA0FDF741FF08E0236C606C216D1B
:1024E000898D591840F100002164606400BF76E7CF
:1024F00010B54FF6FE70444908804448FFF73FFF8F
:1025000010BD10B54FF6FE704FF080410882404874
:10251000FFF735FF10BD10B54FF6FE703D4908803E
:102520003D48FFF72CFF10BD10B5012001F0DCFD88
:1025300098B1012001F024FE3748C07801280CD161
:102540000020354948710846806A8038C8620120F9
:102550004870802088630020C87010BD10B502202C
:1025600001F0C2FD98B1022001F00AFE2748C078B0
:1025700001280CD10020254948710846806A80381E
:10258000C86201204870802088630020C87010BD98
:1025900010B5042001F0A8FDA0B1042001F0F0FD69
:1025A0001748C07801280DD1002015494871084608
:1025B00080688038C860012048708020C1F83E00E3
:1025C0000020C87010BD10B5102001F08DFD98B12D
:1025D000102001F0D5FD0E48C07801280CD1002054
:1025E0000B4948710846806A8038C86201204870EB
:1025F000802088630020C87010BD000010080040D3
:1026000090270020310D0A00102C01409426002054
:10261000E8260020100400403C270020002106E0AE
:10262000002100E0491CB1F5FA5FFBD3401E0028F1
:10263000F6D1704710B501F041F84FF4803001F049
:102640005DF801F0C8F80446012C24D1102005F0F3
:10265000B2F9022005F084F9002001F06DF90020A4
:1026600001F0A8F9A00201F088F94FF4E01120046C
:1026700001F0EEF8012001F037F900BF392001F038
:102680006FF80028FAD0022001F03CF900BF01F0F9
:102690004EF90828FBD110BD10B5FFF7CBFF10BDD8
:1026A000FFF7FAFFFDF7BAFFFFF7A0FBFFF7FDFB0F
:1026B000FFF758FCFFF7B1FCFEF7C7FD5E4A80212B
:1026C0000120FEF739F85C4A20210220FEF734F899
:1026D000594A20210320FEF72FF8574A20210420D1
:1026E000FEF72AF8FFF7C9FCFDF7EBFDFDF72CFF1D
:1026F00052A0FDF732FE56A0FDF772FF8022594925
:10270000594800F0F7F8642200210120FFF70AF889
:1027100000BF564880780128FBD04FF4FA70FFF7CD
:102720007DFF4FF4C87200210120FEF7FBFF00BFC0
:102730004E4880780128FBD04FF4FA70FFF76EFF07
:102740004FF47A6201210846FEF7ECFF00BF4748CC
:1027500080780128FBD04FF4FA70FFF75FFF4FF449
:102760007A6200210120FEF7DDFF00BF3F4880783C
:102770000128FBD04FF4FA70FFF750FF4FF47A6254
:1027800000210220FEF7CEFF00BF394880780128E3
:10279000FBD04FF4FA70FFF741FF4FF47A6201214A
:1027A0000220FEF7BFFF00BF314880780128FBD030
:1027B0004FF4FA70FFF732FF4FF47A6200210320E2
:1027C000FEF7B0FF00BF2B4880780128FBD04FF404
:1027D000FA70FFF723FF4FF47A6201210320FEF71E
:1027E000A1FF00BF234880780128FBD04FF4FA7086
:1027F000FFF714FF4FF47A6200210420FEF7F0FF88
:1028000000BF1D4880780128FBD04FF4FA70FFF715
:1028100005FF4FF47A6201210420FEF7E1FF00BFBB
:10282000154880780128FBD04FF4FA70FFF7F6FEC8
:1028300001E0FFF7A7FAFCE7801F0100415050209C
:1028400053746172742D5553415254310D0A000076
:102850004150502053746172742D5553415254337A
:102860000D0A0000AC0600202C0700209426002052
:10287000E82600203C270020902700200146888879
:102880004008CA88B0EB520F0BD1087900F0010064
:102890008A7902F00102904201D1002070470120A4
:1028A000FCE70220FAE710B504462046FFF7E6FFF2
:1028B00020B1012804D0022805D105E0002010BD78
:1028C000208980B2FBE700BFE0884008A188B0EB18
:1028D000510F06DDE0884008A188A0EB510080B2CE
:1028E000EDE7A0884008E188A0EB51002189081A93
:1028F00080B2E4E710B50024838864F34F035C08DA
:102900009BB264F3000383800024C38864F34F0305
:102910005C089BB264F30003C3800160028110BDB8
:102920002DE9F04104460F4615462046FFF7BBFF50
:102930002189081A86B216B90020BDE8F081AE429E
:1029400000DA3546B4F90800E188A0EB5100A8424E
:1029500010DDE288216801EB52002A46394611F069
:10296000B4FCE08805EB5000E18860F34F01E180A2
:102970002846E2E7B4F90810E388A1EB5302216886
:1029800001EB5300394611F0A0FCB4F90830B4F85B
:1029900006C0A3EB5C03EA1AB4F90830A3EB5C03AE
:1029A000D919206811F091FCA079C043E18860F347
:1029B0000001E1802089E188A0EB5100281A60F332
:1029C0004F01E1802846B8E72DE9F04104460E4664
:1029D00015462046FFF752FF0746B4F90800A84203
:1029E00001DA208985B2B4F90800E188A0EB510032
:1029F000A84219DDE288216801EB52002A463146DF
:102A000011F063FCE08805EB5000E18860F34F01B2
:102A1000E180012F05D1E0884108A08861F34F00D3
:102A2000A0802846BDE8F081B4F90810E388A1EB46
:102A30005302216801EB5300314611F046FCB4F912
:102A40000830B4F806C0A3EB5C03EA1AB4F9083006
:102A5000A3EB5C039919206811F037FCA079C043FF
:102A6000E18860F30001E1802089E188A0EB51005A
:102A7000281A60F34F01E180012F0BD12079C04368
:102A8000A18860F30001A180E0884108A08861F37B
:102A90004F00A0802846C5E72DE9F04104460E46C8
:102AA00015462046FFF7FFFE074617B90020BDE890
:102AB000F081AF4200DA3D46B4F90800A188A0EBEE
:102AC0005100A84210DDA288206800EB52012A467E
:102AD000304611F0FAFBA08805EB5000A18860F3A6
:102AE0004F01A1802846E2E7B4F90800A388A0EBD3
:102AF0005302206800EB5301304611F0E6FBB4F9B5
:102B00000830B4F804C0A3EB5C03EA1AB4F9083047
:102B1000A3EB5C039819216811F0D7FB2079C0431F
:102B2000A18860F30001A1802089A188A0EB510059
:102B3000281A60F34F01A1802846B8E72DE9F0413B
:102B400004460E4615462046FFF7ADFE074617B968
:102B50000020BDE8F081AF4200DA3D46B4F908003C
:102B6000A188A0EB5100A84209DDA288206800EBF3
:102B700052012A46304611F0A8FB2846E9E7B4F98D
:102B80000800A388A0EB5302206800EB53013046F5
:102B900011F09BFBB4F90830B4F804C0A3EB5C035C
:102BA000EA1AB4F90830A3EB5C039819216811F014
:102BB0008CFB2846CDE770B504460D462046FFF74E
:102BC00072FEB4F90810081A00D170BDE1882068BF
:102BD00000EB51000570B4F90800401EE188B0EB2D
:102BE000510F0BD1A079C043E18860F30001E1806F
:102BF0000021E08861F34F00E08007E0E0880121D8
:102C000001EB5000E18860F34F01E1800120DCE737
:102C100070B504460D462046FFF730FE0646E188B3
:102C2000206800EB51000570B4F90800401EE188EF
:102C3000B0EB510F19D1A079C043E18860F30001D6
:102C4000E1800021E08861F34F00E080012E1CD17B
:102C50002079C043A18860F30001A180E088410889
:102C6000A08861F34F00A0800FE0E088012101EB14
:102C70005000E18860F34F01E180012E05D1E0882A
:102C80004108A08861F34F00A080012070BD70B59D
:102C900004460D462046FFF706FE08B9002070BD29
:102CA000A188206800EB510000782870B4F9080072
:102CB000401EA188B0EB510F0BD12079C043A188F1
:102CC00060F30001A1800021A08861F34F00A08083
:102CD00007E0A088012101EB5000A18860F34F01BB
:102CE000A1800120DBE7000010B500214FF000605B
:102CF00006F08AFE10BD10B508F0F8FE06F03BFFA6
:102D000008F003FF10BD70B5FFF7EEFF174800682D
:102D10006422B0FBF2F1B1F1807F00D31DE021F01D
:102D20007F40401E4FF0E022506150170F220028D4
:102D300007DA13071D0E0E4B00F00F04241F1D555C
:102D400003E013071C0E0B4B1C5400BF00204FF078
:102D5000E02290610720106100BF00F01AFB06A07E
:102D600009F01EFB11F020FA70BD00004C0000209D
:102D700018ED00E000E400E07561727431000000BD
:102D8000704700BFFEE700BFFEE700BFFEE77047E9
:102D9000704770B50026202520246648008804402E
:102DA00064480C38008805403CB135B161480838AA
:102DB0000088C1B26048FFF7FEFE80245D480088AD
:102DC000044080255B480C3800880540D4B1CDB163
:102DD0005A490888411C594A11805949095C554A89
:102DE000083A11805548008856490988884209DB0D
:102DF000002054490880514908804E4E8024306894
:102E0000A043306070BD30B50022202120204E4B01
:102E10001B8818404C4B0C3B1B881940C0B1B9B102
:102E20004A4B1B88802B02D30023484C2380464BFF
:102E3000083B1B88464C474D2D886355464B1B78F5
:102E40005B1C454C2370434B1B885B1C414C23800F
:102E500080203D4B1B88184080213B4B0C3B1B883E
:102E60001940D0B1C9B13D4C23885C1C3B4D2C802E
:102E70003B4CE45C344D083D2C80384B1B88394C6E
:102E80002488A34209DB0023364C2380334C238063
:102E90002D4A802013688343136030BD30B5002273
:102EA00020212020304B1B8818402F4B0C3B1B88C7
:102EB0001940C0B1B9B12D4B1B88802B02D3002320
:102EC0002A4C2380284B083B1B88294C294D2D88F0
:102ED0006355294B1B785B1C274C2370254B1B88A3
:102EE0005B1C244C238080201F4B1B8818408021B2
:102EF0001D4B0C3B1B881940D0B1C9B11F4C238816
:102F00005C1C1E4D2C801E4CE45C174D083D2C8033
:102F10001A4B1B881B4C2488A34209DB0023194C45
:102F20002380164C2380104A80201368834313604B
:102F300030BD00000C3801402C07002000000020AC
:102F4000FC010020020000200C4400401C00002076
:102F500038090020160000201E000020100000206C
:102F600038070020120000200C4800402C000020F0
:102F7000B80B0020260000202E000020200000209A
:102F8000B80900202200002008B50121402000F0EF
:102F900092FE10208DF8030003208DF8020004201B
:102FA000ADF8000069462E4805F01EF90820ADF87E
:102FB000000069462A4805F017F908BD10B5044617
:102FC00014B1012C0AD104E00421254805F0E9FAE6
:102FD00005E00821224805F0E4FA00E000BF00BF48
:102FE00010BD10B5044614B1012C0AD104E004212F
:102FF0001B4805F001FB05E00821194805F0FCFA23
:1030000000E000BF00BF10BD70B505460C46154876
:10301000007820B9FFF7B8FF0120124908706DB998
:1030200014B1012C08D103E00020FFF7DAFF04E01F
:103030000020FFF7C3FF00E000BF00BF012D0DD14E
:1030400014B1012C08D103E00120FFF7CAFF04E00E
:103050000120FFF7B3FF00E000BF00BF70BD00001C
:10306000001801403000002070B586B006460C46BE
:103070006EB9002001903223EF4AF0A1F4A009F0CC
:103080001AF900BF9DF804000028FBD000BF6CB9FE
:10309000002001903323E84AF5A1EDA009F00BF9D7
:1030A00000BF9DF804000028FBD000BFF56B20682E
:1030B0000290207900F00F00082802D10020ADF81E
:1030C0000C002079C0F3011018B90020ADF80E00F3
:1030D00007E02079C0F30110012802D14003ADF8C8
:1030E0000E000020ADF81000ADF814000C20ADF873
:1030F000120002A9286805F094FD0121286805F056
:10310000D4FE012240F22551286805F0FBFE002084
:1031100006B070BDF8B504460E4617466CB90020DF
:1031200000905223D64AC5A1C9A009F0C4F800BF37
:103130009DF800000028FBD000BFE56B102E0DD0DD
:10314000112E19D195F9040000F01F0201219140C0
:10315000CC4A430942F8231000BF0DE095F9040062
:1031600000F01F02012191404209920002F1E02289
:10317000C2F8001100BF00BF00BF0020F8BDF8B5C5
:1031800004460E466CB9002000906823BE4AABA1ED
:10319000AFA009F090F800BF9DF800000028FBD018
:1031A00000BFE56B00BF2868008800F080000028A1
:1031B000F9D0286886800120F8BDF8B504466CB9BE
:1031C000002000907623B14A9CA1A1A009F073F8D9
:1031D00000BF9DF800000028FBD000BFE56B4FF05A
:1031E000FF362868008800F0200010B12868808829
:1031F000C6B23046F8BD10B5A54C08F077FC40F2D9
:103200002551206806F0B1FA38B1A2480BF069FDEB
:1032100040F22551206806F034FB40F22661206818
:1032200006F0A3FA20B140F22661206806F029FBDF
:1032300008F06BFC10BD10B5974C08F057FC40F23D
:103240002551206806F091FA38B194480BF049FDF9
:1032500040F22551206806F014FB40F226612068F8
:1032600006F083FA20B140F22661206806F009FBDF
:1032700008F04BFC10BD10B5894C08F037FC40F24B
:103280002551206806F071FA38B186480BF029FD07
:1032900040F22551206806F0F4FA40F226612068D9
:1032A00006F063FA20B140F22661206806F0E9FAE0
:1032B00008F02BFC10BD10B50121042000F0FBFC30
:1032C0000121880300F0F7FC0121042000F0F3FC49
:1032D0000121480400F018FD0121082000F0EBFC5A
:1032E0000121880400F010FD10BD08B502208DF802
:1032F000020004208DF803000002ADF800006946CA
:10330000694804F071FF18208DF803004FF4007035
:10331000ADF800006946644804F066FF04208DF8AB
:1033200003000820ADF8000069465F4804F05CFF28
:1033300018208DF803000420ADF8000069465A48B3
:1033400004F052FF04208DF803004002ADF80000A5
:103350006946564804F048FF18208DF803004FF4E2
:103360008060ADF800006946504804F03DFF08BD9C
:1033700038B5044620798DF8000000208DF8010052
:103380008DF8020001208DF80300684606F0EDFA82
:1033900038BD1CB5464903C9CDE90001FFF78BFFD5
:1033A000FFF7A3FF3A4C4FF4E13000904148394910
:1033B00008644148C8640846DDE90012416482643B
:1033C0002046FFF7D5FF234640F243123BA1314888
:1033D0000BF007FC304C4FF4E130009035482F499A
:1033E00008643848C8640846DDE900124164826414
:1033F0002046FFF7BDFF234640F2031232A12748C3
:103400000BF0EFFB264C4FF4E130009029482549A2
:1034100008642F48C8640846DDE9001241648264EC
:103420002046FFF7A5FF234640F2031229A11D48BD
:103430000BF0D7FB1CBD000088560108736572694C
:10344000616C20213D2052545F4E554C4C000000D1
:103450002825732920617373657274206661696C15
:1034600065642061742025733A2564200A000000F9
:1034700063666720213D2052545F4E554C4C00003E
:103480009856010880E100E0A6560108B1560108EF
:1034900034000020282800203C000020E8280020DC
:1034A00044000020A829002000080140000C014031
:1034B000BC56010874560108E42700207561727437
:1034C00031000000A42800207561727432000000F1
:1034D0006429002075617274330000000CB500206F
:1034E000019000906C48006840F480306A490860A0
:1034F00000BF6948006800F4003000900198401C4B
:103500000190009818B90198B0F5A06FF1D1624808
:10351000006800F4003010B10120009001E00020AC
:1035200000900098012843D15C48006840F01000EA
:103530005A4908600846006820F003000860084601
:10354000006840F0020008605348406852494860F3
:103550000846406848600846406840F4806048601B
:103560000846406820F47C1048600846406840F4F3
:10357000E81048600846006840F08070086000BFAE
:103580004548006800F000700028F9D042484068C3
:1035900020F00300404948600846406840F00200BF
:1035A000486000BF3C48406800F00C000828F9D192
:1035B0000CBD10B5FFF792FF10BD10B5364800687E
:1035C00040F001003449086008464068344908402A
:1035D0003149486008460068324908402E49086071
:1035E0000846006820F4802008600846406820F4FF
:1035F000FE0048604FF41F008860FFF7DAFF4FF0CD
:1036000000602949086010BD10B50021002000228B
:10361000214B5B6803F00C0121B1042906D0082975
:1036200028D107E0214B224C236027E01F4B204C80
:10363000236023E0184B5B6803F47010164B5B6843
:1036400003F48032022303EB904022B9194B434329
:10365000174C23600DE0104B5B6803F4003323B17B
:10366000144B4343124C236003E0104B4343104C74
:10367000236003E00D4B0E4C236000BF00BF064BE0
:103680005B68C3F303130C4CE15C094B1B68CB4034
:10369000074C236010BD00000010024000200240D3
:1036A0000000FFF8FFFFF6FE08ED00E000127A00D0
:1036B0004C00002000093D0050000020FE4800683A
:1036C00040F00100FC49086008464068FB4908409A
:1036D000F949486008460068F9490840F649086019
:1036E0000846006820F4802008600846406820F4FE
:1036F000FE0048604FF41F008860704710B5044614
:103700002CB1B4F5803F02D0B4F5802F00D104E095
:1037100040F21111EBA0FCF75FFDE748006820F4D0
:103720008030E54908600846006820F48020086081
:10373000B4F5803F03D0B4F5802F0ED106E0DE480B
:10374000006840F48030DC49086007E0DA4800682F
:1037500040F4A020D849086000E000BF00BF10BDC1
:103760002DE9F0410446002500260027212C13D026
:10377000312C11D0392C0FD0412C0DD0612C0BD015
:103780007A2C09D07B2C07D07C2C05D07D2C03D043
:103790007E2C01D07F2C00D104E040F23451C9A02E
:1037A000FCF71AFD6511012D02D1C348066806E039
:1037B000022D02D1C048066A01E0BF48466A04F003
:1037C0001F050120A840304008B1012700E0002774
:1037D0003846BDE8F08138B500200090002400256F
:1037E00000BF3120FFF7BCFF05460098401C009049
:1037F0000098B0F5A06F01D0002DF2D03120FFF776
:10380000AFFF08B1012400E00024204638BD70B5A8
:10381000044600251F2C00DC04E04FF4A971A9A088
:10382000FCF7DAFCA448056825F0F80545EAC4056C
:10383000056070BD10B504460CB1012C00D104E048
:1038400040F265119FA0FCF7C7FCAD48046010BDB5
:1038500070B505460C4600262DB1B5F5803F02D067
:10386000B5F5403F00D104E040F27F1195A0FCF790
:10387000B3FC4CB3B4F5802F26D0B4F5002F23D081
:10388000B4F5402F20D0B4F5801F1DD0B4F5A01F93
:103890001AD0B4F5C01F17D0B4F5E01F14D0B4F59A
:1038A000001F11D0B4F5101F0ED0B4F5201F0BD09F
:1038B000B4F5301F08D0B4F5401F05D0B4F5501F43
:1038C00002D0B4F5601F00D104E04FF4C0717DA0B8
:1038D000FCF782FC7848466826F47C1645EA04002A
:1038E00006437548466070BD10B504460CB1012C06
:1038F00000D104E04FF4CA7172A0FCF76DFC80485F
:10390000046610BD70B5044600251CB1012C01D021
:10391000022C00D104E04FF40E716AA0FCF75CFCAD
:103920006548456825F003052543456070BD62483C
:10393000406800F00C00704770B5044600257CB16B
:10394000802C0DD0902C0BD0A02C09D0B02C07D0FF
:10395000C02C05D0D02C03D0E02C01D0F02C00D10D
:1039600004E04FF4197157A0FCF736FC5248456843
:1039700025F0F0052543456070BD70B5044600256F
:103980005CB1B4F5806F08D0B4F5A06F05D0B4F584
:10399000C06F02D0B4F5E06F00D104E040F27E21A8
:1039A00048A0FCF719FC4448456825F4E065254328
:1039B000456070BD70B5044600255CB1B4F5806FFC
:1039C00008D0B4F5A06F05D0B4F5C06F02D0B4F53F
:1039D000E06F00D104E04FF426713AA0FCF7FCFB45
:1039E0003548456825F4605545EAC405456070BD15
:1039F00070B504460D4604F0E00008B904B104E0D7
:103A000040F2BF212FA0FCF7E7FB0DB1012D00D143
:103A100004E04FF430712BA0FCF7DEFB2DB12648FB
:103A2000407A20432449487204E02348407AA04366
:103A30002149487270BD10B504460CB1012C00D16B
:103A400004E040F2DB211FA0FCF7C6FB2C48D83075
:103A5000046010BD70B50446002544B1B4F5804F34
:103A600005D0B4F5004F02D0B4F5404F00D104E0CA
:103A700040F2023113A0FCF7AFFB0F48456825F474
:103A800040452543456070BD10B504461CB1012C6E
:103A900001D0042C00D104E04FF4507109A0FCF7D0
:103AA0009BFB0020044920310870034981F8200065
:103AB000012C29D0042C25E0001002400000FFF862
:103AC000FFFFF6FE4C69627261726965735C535464
:103AD0004D3332463130785F53746450657269708B
:103AE000685F4472697665725C7372635C73746D4F
:103AF0003332663130785F7263632E6300000000FA
:103B00000000424208D103E00120F449087004E0BB
:103B10000520F249087000E000BF00BF10BD10B5DD
:103B200004460CB1012C00D105E040F26131AFF246
:103B30006C00FCF751FBEA48046010BD10B5044668
:103B4000B4F5807F05D0B4F5007F02D0B4F5407F96
:103B500000D105E040F27231AFF29800FCF73CFB77
:103B6000DE482038006A2043DC492039086210BD55
:103B700010B504460CB1012C00D105E04FF4607182
:103B8000AFF2C000FCF728FBD5484438046010BDF4
:103B900030B50021002200240023D04D203D6D6867
:103BA00005F00C0121B1042905D0082926D105E032
:103BB000CC4D056025E0CB4D056022E0C74D203D92
:103BC0006D6805F47012C54D203D6D6805F48034B4
:103BD000022505EB92421CB9C34D554305600CE02C
:103BE000BE4D203D6D6805F400351DB1BE4D5543F9
:103BF000056002E0BB4D5543056002E0B94D05602C
:103C000000BF00BFB54D203D6D6805F0F00109090A
:103C1000B64D6B5C0568DD404560B04D203D6D687C
:103C200005F4E061090AB14D6B5C4568DD408560D3
:103C3000AA4D203D6D6805F46051C90AAB4D6B5C1F
:103C40004568DD40C560A54D203D6D6805F44041E7
:103C5000890BA74D6B5CC568B5FBF3F5056130BDFD
:103C600070B504460D4640F2575024EA000008B9EA
:103C700004B105E040F22B41AFF2B810FCF7ACFA0A
:103C80000DB1012D00D105E040F22C41AFF2CC1076
:103C9000FCF7A2FA3DB191482038406920438F4992
:103CA0002039486106E08D4820384069A0438B499F
:103CB0002039486170BD70B504460D468D482040DE
:103CC00008B904B105E040F24A41AFF20820FCF720
:103CD00083FA0DB1012D00D105E040F24B41AFF266
:103CE0001C20FCF779FA3DB17C48203880692043DC
:103CF0007A492039886106E0784820388069A043F5
:103D000076492039886170BD70B504460D467A4801
:103D1000204008B904B105E040F26941AFF25C20EF
:103D2000FCF75AFA0DB1012D00D105E040F26A41CD
:103D3000AFF27020FCF750FA3DB168482038C069F6
:103D4000204366492039C86106E064482038C069CC
:103D5000A04362492039C86170BD70B504460D4664
:103D60006448204008B904B105E040F2A441AFF234
:103D7000AC20FCF731FA0DB1012D00D105E040F285
:103D8000A541AFF2C020FCF727FA3DB153482038D7
:103D9000C068204351492039C86006E04F482038A8
:103DA000C068A0434D492039C86070BD70B5044655
:103DB0000D465148204008B904B105E040F2C34126
:103DC000AFF20030FCF708FA0DB1012D00D105E08B
:103DD00040F2C441AFF21430FCF7FEF93DB13F4868
:103DE0002038006920433D492039086106E03B48FE
:103DF00020380069A04339492039086170BD10B5E9
:103E000004460CB1012C00D105E04FF49B61AFF2E8
:103E10004C30FCF7E1F932484038046010BD10B571
:103E200004460CB1012C00D105E040F2E541AFF2AF
:103E30006C30FCF7D1F93148C46410BD10B50446AC
:103E40003CB1052C05D0042C03D0062C01D0072C46
:103E500000D105E040F20551AFF29830FCF7BCF913
:103E60001E482038C47110BD1C482038406A40F0FC
:103E700080701A4920394862704770B504460025A1
:103E8000012C09D0022C07D0042C05D0082C03D01B
:103E9000102C01D0802C00D105E040F27E51AFF211
:103EA000DC30FCF799F90D4820388068204008B1D3
:103EB000012500E00025284670BD10B5044604F039
:103EC000600008B904B105E040F2AB51AFF20C401C
:103ED000FCF782F901482038847210BD201002409E
:103EE0008004424200127A0000093D006000002078
:103EF000700000200200C0FF003601810000424235
:103F00000020A7490860091D0860091D0860091DF7
:103F10000860A448A24914310860704770B504468F
:103F20000025207910B12079042800D103E06A210E
:103F30009DA0FCF751F96079082805D060790C281C
:103F400002D06079102800D103E06B2196A0FCF725
:103F500043F920686FF3130010B9206800B103E043
:103F60006C2191A0FCF738F9A07910B1A079012853
:103F700000D103E06D218CA0FCF72EF9884DA079CB
:103F800090B3284600682168884329460860081DC8
:103F9000006821688843291D086020790544286845
:103FA0002168084328607E480830006821688843FB
:103FB0007B4908310860081D0068216888437849FA
:103FC0000C310860607910280FD1081F0068216843
:103FD0000843734908310860081D006821680843D8
:103FE0006F490C3108600EE007E06D4D60790544C3
:103FF000286821680843286005E02079054428687E
:1040000021688843286070BD0021016001710C2186
:10401000417100218171704710B50446200D0005E3
:1040200008B904B103E0AE215FA0FCF7D5F85C4805
:104030001030006820435A491031086010BD70B537
:1040400004460025012C31D0022C2FD0042C2DD079
:10405000082C2BD0102C29D0202C27D0402C25D058
:10406000802C23D0B4F5807F20D0B4F5007F1DD004
:10407000B4F5806F1AD0B4F5006F17D0B4F5805F37
:1040800014D0B4F5005F11D0B4F5804F0ED0B4F564
:10409000004F0BD0B4F5803F08D0B4F5003F05D0F9
:1040A000B4F5802F02D0B4F5002F00D103E0BE217B
:1040B0003DA0FCF791F83A4814300068204008B160
:1040C000012500E00025284670BD10B50446200DEE
:1040D000000508B904B103E0D42133A0FCF77CF853
:1040E0002F481430046010BD70B50446002500262A
:1040F000012C31D0022C2FD0042C2DD0082C2BD009
:10410000102C29D0202C27D0402C25D0802C23D037
:10411000B4F5807F20D0B4F5007F1DD0B4F5806F5A
:104120001AD0B4F5006F17D0B4F5805F14D0B4F591
:10413000005F11D0B4F5804F0ED0B4F5004F0BD016
:10414000B4F5803F08D0B4F5003F05D0B4F5802F1A
:1041500002D0B4F5002F00D103E0E52112A0FCF756
:104160003BF80F48006800EA04060D481430006868
:10417000204010B10EB1012500E00025284670BD99
:1041800010B50446200D000508B904B103E0FC2178
:1041900005A0FCF721F802481430046010BD0000AF
:1041A00000040140FFFF0F004C6962726172696593
:1041B000735C53544D3332463130785F53746450DE
:1041C00065726970685F4472697665725C73726368
:1041D0005C73746D3332663130785F657874692E44
:1041E0006300000010B50446F84884422FD0B4F1B3
:1041F000804F2CD0F648844229D0F648844226D0FD
:10420000F548844223D0F548844220D0F4488442C3
:104210001DD0F44884421AD0F348844217D0F348A2
:10422000844214D0F248844211D0F24884420ED025
:10423000F14884420BD0F148844208D0F0488442CF
:1042400005D0F048844202D0EF48844200D103E018
:104250007D21EEA0FBF7C0FFDC48844208D101219C
:10426000C014FFF77AFD0021E014FFF776FDC4E0EB
:10427000B4F1804F08D101210846FFF797FD0021D6
:104280000120FFF793FDB8E0D148844208D1012115
:104290000220FFF78BFD00210220FFF787FDACE035
:1042A000CC48844208D101210420FFF77FFD002182
:1042B0000420FFF77BFDA0E0C748844208D101211C
:1042C0000820FFF773FD00210820FFF76FFD94E041
:1042D000C248844208D101211020FFF767FD002168
:1042E0001020FFF763FD88E0BD48844208D101211A
:1042F0002020FFF75BFD00212020FFF757FD7CE029
:10430000B848844208D101214014FFF726FD00215E
:104310006014FFF722FD70E0B348844209D1012107
:10432000C804FFF71AFD00214FF40020FFF715FD28
:1043300063E0AE48844209D101210805FFF70DFD75
:1043400000214FF48010FFF708FD56E0A848844292
:1043500009D101214805FFF700FD00214FF40010AD
:10436000FFF7FBFC49E0A348844208D1012140202B
:10437000FFF71CFD00214020FFF718FD3DE09E489F
:10438000844208D101218020FFF710FD0021802008
:10439000FFF70CFD31E09948844208D101218015D6
:1043A000FFF704FD0021A015FFF700FD25E094486C
:1043B000844209D101210804FFF7CFFC00214FF40A
:1043C0008030FFF7CAFC18E08E48844209D10121F1
:1043D0004804FFF7C2FC00214FF40030FFF7BDFC9A
:1043E0000BE08948844208D101218804FFF7B5FC1D
:1043F00000214FF48020FFF7B0FC10BD70B50446DB
:104400000D460026714884422FD0B4F1804F2CD045
:104410006F48844229D06F48844226D06E48844237
:1044200023D06E48844220D06D4884421DD06D4810
:1044300084421AD06C48844217D06C48844214D00D
:104440006B48844211D06B4884420ED06A48844243
:104450000BD06A48844208D06948844205D0694834
:10446000844202D06848844200D103E0E72167A07B
:10447000FBF7B2FE688858B16888102808D06888B1
:10448000202805D06888402802D06888602800D19C
:1044900003E0E8215DA0FBF79FFEE88838B1E888DB
:1044A000B0F5807F03D0E888B0F5007F00D103E04D
:1044B000E92156A0FBF790FE2688444884420ED09E
:1044C000484884420BD0B4F1804F08D04048844221
:1044D00005D04048844202D03F48844204D14FF680
:1044E0008F700640688806433C48844207D03C48A9
:1044F000844204D04FF6FF400640E88806432680F9
:10450000A888A08528882085304884420BD035486B
:10451000844208D03A48844205D03A48844202D0C6
:104520003948844201D1287A20860120A08270BDBA
:104530002DE9F04104460D464FF000080026002703
:104540002248844229D0B4F1804F26D020488442AA
:1045500023D02048844220D01F4884421DD02148C7
:1045600084421AD02048844217D02048844214D074
:104570001F48844211D01F4884420ED01E488442F6
:104580000BD01E48844208D01D48844205D01D48E7
:10459000844202D01C48844200D104E04FF48E7162
:1045A0001AA0FBF719FE288870B1288810280BD0B4
:1045B0002888202808D02888302805D02888602816
:1045C00002D0288870283FD144E00000002C014030
:1045D0000004004000080040000C004000100040B3
:1045E0000014004000340140004C014000500140E4
:1045F0000054014000180040001C00400020004012
:104600000040014000440140004801404C69627292
:1046100061726965735C53544D3332463130785F53
:104620005374645065726970685F4472697665722C
:104630005C7372635C73746D3332663130785F74AF
:10464000696D2E630000000040F21D11AFF24400BE
:10465000FBF7C2FD688810B16888012800D105E029
:104660004FF48F71AFF25C00FBF7B6FD288910B1F3
:104670002889022800D105E040F21F11AFF2740032
:10468000FBF7AAFD208C4FF6FE7108402084268C93
:10469000A788B4F818804FF68F7008EA0008881EC3
:1046A00008EA0008288840EA0808481E06402889C9
:1046B000064368880643FE4884420BD0FD48844286
:1046C00008D0FD48844205D0FC48844202D0FC4812
:1046D000844245D1A88810B1A888042800D105E0FB
:1046E0004FF49E71AFF2DC00FBF776FD688910B1E4
:1046F0006889082800D105E040F23D11AFF2F400CE
:10470000FBF76AFDE889B0F5007F01D0E88900B9C0
:1047100005E04FF49F71AFF20C10FBF75DFDA88927
:10472000B0F5807F01D0A88900B905E040F23F11C3
:10473000AFF22810FBF750FD4FF6F770064068897E
:1047400006434FF6FB700640A88806434FF6FF600D
:1047500007404FF6FF500740A8890743E889074301
:10476000A780A4F81880E888A0862684BDE8F08198
:104770002DE9F04105460C464FF0000800260027C1
:10478000CB48854217D0B5F1804F14D0CD48854233
:1047900011D0CD4885420ED0CC4885420BD0C548BB
:1047A000854208D0CA48854205D0CA48854202D011
:1047B000C148854200D105E040F26F11AFF2B4105C
:1047C000FBF70AFD208870B1208810280BD02088C4
:1047D000202808D02088302805D02088602802D0E2
:1047E0002088702800D105E04FF4B871AFF2E410D2
:1047F000FBF7F2FC608810B16088012800D105E069
:1048000040F27111AFF2FC10FBF7E6FC208910B109
:104810002089022800D105E04FF4B971AFF21420CD
:10482000FBF7DAFC288C4FF6EF71084028842E8CB9
:10483000AF88B5F8188048F6FF7008EA00084FF610
:10484000FF4008EA000820884FF6FF7101EA0020C7
:1048500040EA08084FF6DF700640208901EA0010A0
:104860000643608801EA001006439148854202D061
:10487000904885424FD1A08810B1A088042800D16B
:1048800005E040F28F11AFF27C20FBF7A5FC6089B8
:1048900010B16089082800D105E04FF4C871AFF26B
:1048A0009420FBF799FCE089B0F5007F01D0E08906
:1048B00000B905E040F29111AFF2B020FBF78CFC9B
:1048C000A089B0F5807F01D0A08900B905E04FF440
:1048D000C971AFF2C820FBF77FFC4FF67F7006402E
:1048E00060894FF6FF7101EA001006434FF6BF7072
:1048F0000640A08801EA001006434FF6FF3007404B
:104900004FF2FF700740A08901EA80000743E08969
:1049100001EA80000743AF80A5F81880E088288767
:104920002E84BDE8F0812DE9F04105460C464FF09C
:104930000008002600275E4885420ED0B5F1804F62
:104940000BD06048854208D05F48854205D05F485B
:10495000854202D05748854200D105E040F2C1119E
:10496000AFF25830FBF738FC208870B1208810284F
:104970000BD02088202808D02088302805D0208817
:10498000602802D02088702800D105E04FF4E17142
:10499000AFF28830FBF720FC608810B160880128F6
:1049A00000D105E040F2C311AFF2A030FBF714FCD8
:1049B000208910B12089022800D105E04FF4E2716E
:1049C000AFF2B830FBF708FC288C4FF6FF610840C7
:1049D00028842E8CAF88B5F81C804FF68F7008EABB
:1049E00000084FF6FC7008EA0008208840EA080832
:1049F0004FF6FF50064020894FF6FF7101EA002074
:104A00000643608801EA002006432948854202D017
:104A10002848854264D1A08810B1A088042800D11C
:104A200005E04FF4F071AFF21C40FBF7D5FB608955
:104A300010B16089082800D105E040F2E111AFF221
:104A40003440FBF7C9FBE089B0F5007F01D0E08975
:104A500000B905E04FF4F171AFF25040FBF7BCFB39
:104A6000A089B0F5807F01D0A08900B905E040F2AF
:104A7000E311AFF26840FBF7AFFB4FF2FF70064067
:104A800060894FF6FF7101EA002006434FF6FF30C0
:104A90000640A08801EA002006434EF6FF7007405A
:104AA0004DF6FF700740A08901EA0010074313E0AC
:104AB000002C01400034014000400140004401400E
:104AC000004801400004004000080040000C004085
:104AD000004C014000180040E08901EA0010074343
:104AE000AF80A5F81C80E088A8872E84BDE8F081FF
:104AF0002DE9F04104460D4600270026B046F8484F
:104B000084420ED0B4F1804F0BD0F648844208D0D6
:104B1000F548844205D0F548844202D0F4488442E6
:104B200000D105E04FF40471AFF22050FBF754FBC5
:104B3000288870B1288810280BD02888202808D011
:104B40002888302805D02888602802D02888702836
:104B500000D105E040F21121AFF25050FBF73CFBD1
:104B6000688810B16888012800D105E040F2122160
:104B7000AFF26850FBF730FB288910B12889022872
:104B800000D105E040F21321AFF28050FBF724FB87
:104B9000208C4EF6FF7108402084268CB4F80480E7
:104BA000A78B48F6FF7007404FF6FF400740288864
:104BB0004FF6FF7101EA002007434DF6FF700640F3
:104BC000288901EA00300643688801EA003006437C
:104BD000C348844202D0C648844217D1A889B0F5A0
:104BE000807F01D0A88900B905E04FF40C71AFF2C5
:104BF000E450FBF7F1FA4BF6FF7008EA0008A889C9
:104C00004FF6FF7101EA801040EA0808A4F804801A
:104C1000A783E888A4F840002684BDE8F08170B539
:104C200004460D46AE4884420ED0B4F1804F0BD0FE
:104C3000AC48844208D0AC48844205D0AB4884429A
:104C400002D0AB48844200D105E040F67611AFF2C5
:104C50004460FBF7C1FA2DB1042D03D0082D01D01B
:104C60000C2D00D105E040F67711AFF26060FBF744
:104C7000B3FAA08B4FF2FF310840A083A08B4FF610
:104C8000FF7101EA05210843A08370BDF0B50C4611
:104C90001546002200210026078C4EF6FF7C07EA0D
:104CA0000C070784828B018C4FF6FF7707EA0436E6
:104CB00040F6FF473A404FF6FF7707EA05273A43A9
:104CC0004FF6FF7707EA03373A43854FB8420ED0D5
:104CD000874FB8420BD0B0F1804F08D0814FB84217
:104CE00005D0814FB84202D0804FB84206D14DF670
:104CF000FF77394046F48057394305E047F6FF57C0
:104D0000394044F48057394382830184F0BD70B543
:104D100004460D46724884420ED0B4F1804F0BD049
:104D20007048844208D07048844205D06F4884425D
:104D300002D06F48844200D105E04FF41661AFF213
:104D40003470FBF749FA2DB1042D03D0082D01D0A2
:104D50000C2D00D105E040F66111AFF25070FBF769
:104D60003BFAA08B4FF6F3710840A083A08B284339
:104D7000A08370BDF0B50C46154600220021002628
:104D8000078C4FF6FF6C07EA0C070784828B018CB7
:104D90004FF6FF7707EA04264FF60C773A404FF6B6
:104DA000FF7707EA03172F433A434D4FB8420ED01F
:104DB0004F4FB8420BD0B0F1804F08D0494FB842A6
:104DC00005D0494FB84202D0484FB84206D14FF6FD
:104DD000FF57394046F48077394305E04FF2FF57DB
:104DE000394044F48077394382830184F0BD70B543
:104DF00004460D463A48844217D0B4F1804F14D08F
:104E00003848844211D0384884420ED03748844212
:104E10000BD03748844208D03648844205D0364803
:104E2000844202D03548844200D105E040F64A1160
:104E3000AFF62800FBF7D0F92DB1042D03D0082DD3
:104E400001D00C2D00D105E040F64B11AFF6440027
:104E5000FBF7C2F9208B4FF2FF3108402083208BF3
:104E60004FF6FF7101EA05210843208370BDF0B5BC
:104E70000C461546002200210026078C4FF6EF7CD9
:104E800007EA0C070784028B018C4FF6FF7707EACD
:104E9000041640F6FF473A404FF6FF7707EA03371C
:104EA0003A434FF6FF7707EA05273A430C4FB842DB
:104EB0000ED00F4FB8420BD0B0F1804F08D0094F41
:104EC000B84205D0084FB84202D0084FB84217D1B7
:104ED0004FF6DF77394046F01007394316E00000FF
:104EE000002C01400004004000080040000C00407D
:104EF00000340140004C01400018004000400140D7
:104F00004FF65F77394044F010073943028301843C
:104F1000F0BD70B504460D46FB48844229D0B4F17B
:104F2000804F26D0F948844223D0F948844220D0CB
:104F3000F84884421DD0F84884421AD0F748844289
:104F400017D0F748844214D0F648844211D0F6486E
:104F500084420ED0F54884420BD0F548844208D0F4
:104F6000F448844205D0F448844202D0F348844295
:104F700000D105E040F63411AFF67010FBF72CF9C4
:104F80002DB1042D03D0082D01D00C2D00D105E04A
:104F900040F63511AFF68C10FBF71EF9208B4FF65B
:104FA000F37108402083208B2843208370BDF0B527
:104FB0000C46154600220021068C4FF6FE773E4037
:104FC0000684028B018C4FF60C7632407E1C06EA7A
:104FD00003162E433243CC4EB0420ED0CE4EB042DA
:104FE0000BD0B0F1804F08D0C84EB04205D0C84EAB
:104FF000B04202D0C74EB04206D14FF6FD763140E6
:1050000044F00106314305E04FF6F576314044F0B7
:105010000106314302830184F0BD70B504460D469C
:10502000288840B12888042805D02888082802D07C
:1050300028880C2800D105E040F24E21AFF634203C
:10504000FBF7CAF8A888012805D0A888022802D052
:10505000A888032800D105E040F24F21AFF6542084
:10506000FBF7BAF8E88840B1E888042805D0E8885A
:10507000082802D0E8880C2800D105E04FF414710C
:10508000AFF67820FBF7A8F828890F2800DC05E0A8
:1050900040F25121AFF68C20FBF79EF89A488442EB
:1050A0000ED09D4884420BD0B4F1804F08D0974871
:1050B000844205D09648844202D0964884420CD15E
:1050C000688810B16888022800D115E040F25621A6
:1050D000AFF6C820FBF780F80EE0688828B1688832
:1050E000022802D068880A2800D105E040F25A213F
:1050F000AFF6E820FBF770F8288800283ED18248F8
:10510000844229D0B4F1804F26D08048844223D0F5
:105110007F48844220D07F4884421DD07E4884420C
:105120001AD07E48844217D07D48844214D07D48EE
:10513000844211D07C4884420ED07C4884420BD0FB
:105140007B48844208D07B48844205D07A48844218
:1051500002D07A48844200D105E040F25E21AFF6E9
:105160005430FBF739F82B89AA8869882046FFF765
:105170001EFFE9882046FFF7CCFE79E02888042846
:105180002CD16148844217D0B4F1804F14D05F48CD
:10519000844211D05E4884420ED05E4884420BD0D7
:1051A0005D48844208D05D48844205D05E48844210
:1051B00002D06048844200D105E04FF41A71AFF686
:1051C000B430FBF709F82B89AA8869882046FFF7D5
:1051D0004EFEE9882046FFF70AFE49E028880828A5
:1051E00023D1494884420ED0B4F1804F0BD04748B8
:1051F000844208D04648844205D04648844202D0C2
:105200004548844200D105E040F27221AFF60440E7
:10521000FAF7E2FF2B89AA8869882046FFF7AAFDE2
:10522000E9882046FFF773FD22E0374884420ED01C
:10523000B4F1804F0BD03548844208D034488442C2
:1052400005D03448844202D03348844200D105E07E
:105250004FF41F71AFF64C40FAF7BEFF2B89AA88B6
:1052600069882046FFF712FDE9882046FFF7D7FC42
:1052700070BD2DE9F04105460C4600260127224865
:10528000854217D0B5F1804F14D02048854211D007
:105290001F4885420ED01F4885420BD01E488542CC
:1052A00008D01E48854205D01F48854202D02148BB
:1052B000854200D105E040F29321AFF6B040FAF705
:1052C0008BFF608808B9022600E00026A08801282C
:1052D00001D1022700E001272088A0B92389A288F4
:1052E00061882846FFF763FEE1882846FFF711FE34
:1052F00023893A4631462846FFF7B9FDE18828461A
:10530000FFF775FD30E01BE0002C01400004004079
:1053100000080040000C004000340140004C0140F7
:10532000005001400054014000180040001C0040A3
:10533000002000400040014000440140004801407E
:105340002389A28861882846FFF791FDE1882846D5
:10535000FFF74DFD23893A4631462846FFF727FEE1
:10536000E1882846FFF7D5FDBDE8F08170B5054618
:105370000C46FE4885420BD0FD48854208D0FD48CA
:10538000854205D0FC48854202D0FC48854200D1C8
:1053900005E040F2CB21AFF68C50FAF71DFF2088D4
:1053A000B0F5006F01D0208800B905E04FF43371EB
:1053B000AFF6A850FAF710FF6088B0F5806F01D003
:1053C000608800B905E040F2CD21AFF6C050FAF791
:1053D00003FFA08858B1A088B0F5807F07D0A088CF
:1053E000B0F5007F03D0A088B0F5407F00D105E084
:1053F00040F2CE21AFF6EC50FAF7EEFE2089B0F580
:10540000805F01D0208900B905E040F2CF21AFF6DE
:105410000460FAF7E1FE608918B16089B0F5005FB9
:1054200000D105E04FF43471AFF62060FAF7D4FEF6
:10543000A089B0F5804F01D0A08900B905E040F205
:10544000D121AFF63860FAF7C7FE2088618808439B
:10545000A1880843E18808432189084361890843FA
:10546000A1890843A5F8440070BD4FF6FF71818003
:1054700000210180C18041800172704700210180BC
:1054800041808180C180018141818181C1817047DA
:10549000002101804180012181800021C1800181A2
:1054A00070470021018041808180C180018141815C
:1054B0008181704770B504460D46AC4884422FD0B8
:1054C000B4F1804F2CD0AE48844229D0AD488442FC
:1054D00026D0AD48844223D0AC48844220D0AC488A
:1054E00084421DD0A24884421AD0AA48844217D0D0
:1054F000A948844214D0A948844211D0A8488442C3
:105500000ED0A84884420BD0A748844208D09948BE
:10551000844205D09848844202D09848844200D101
:1055200005E040F22931AFF61C70FAF755FE0DB1D7
:10553000012D00D105E040F22A31AFF63070FAF7C4
:105540004BFE25B1208840F00100208004E0208837
:105550004FF6FE710840208070BD70B504460D46C0
:10556000824884420BD08248844208D081488442D9
:1055700005D08148844202D08048844200D105E0B1
:1055800040F24231AFF67C70FAF726FE0DB1012DE4
:1055900000D105E040F24331AFF69070FAF71CFEFF
:1055A00035B1B4F8440040F40040A4F8440005E0EC
:1055B000B4F84400C0F30E00A4F8440070BD70B508
:1055C00004460D461646694884422FD0B4F1804FF8
:1055D0002CD06B48844229D06A48844226D06A483D
:1055E000844223D06948844220D0694884421DD037
:1055F0005F4884421AD06748844217D06648844284
:1056000014D06648844211D0654884420ED0654863
:1056100084420BD06448844208D05648844205D066
:105620005548844202D05548844200D104E040F2FB
:105630006B315E48FAF7D0FD05F47F4008B905B13B
:1056400004E04FF45B715948FAF7C6FD0EB1012E24
:1056500000D104E040F26D315448FAF7BDFD1EB1AF
:10566000A0892843A08102E0A089A843A08170BD41
:1056700070B504460D463D4884422FD0B4F1804FAA
:105680002CD03F48844229D03E48844226D03E4810
:10569000844223D03D48844220D03D4884421DD0DE
:1056A000334884421AD03B48844217D03A48844257
:1056B00014D03A48844211D0394884420ED0394837
:1056C00084420BD03848844208D02A48844205D00E
:1056D0002948844202D02948844200D104E04FF492
:1056E00064713248FAF778FD05F47F4008B905B1D6
:1056F00004E040F291312D48FAF76EFDA58270BDAD
:1057000070B506460C4615461848864217D0B6F1C5
:10571000804F14D01A48864211D01A4886420ED0C3
:10572000194886420BD01248864208D0114886425A
:1057300005D01148864202D01048864200D104E0CC
:105740004FF46B711948FAF747FD8CB3012C45D023
:10575000022C43D0032C41D0042C3FD0052C3DD04B
:10576000062C3BD0072C39D0082C22E0002C01401D
:105770000034014000400140004401400048014025
:105780000004004000080040000C004000100040F1
:1057900000140040004C0140005001400054014002
:1057A00000180040001C0040002000400C4600088B
:1057B00014E013D0092C11D00A2C0FD00B2C0DD0D3
:1057C0000C2C0BD00D2C09D00E2C07D00F2C05D093
:1057D000102C03D0112C01D0122C00D104E040F287
:1057E000AD31FB48FAF7F8FC95B3B5F5807F2FD0C3
:1057F000B5F5007F2CD0B5F5407F29D0B5F5806F89
:1058000026D0B5F5A06F23D0B5F5C06F20D0B5F583
:10581000E06F1DD0B5F5006F1AD0B5F5106F17D039
:10582000B5F5206F14D0B5F5306F11D0B5F5406FD8
:105830000ED0B5F5506F0BD0B5F5606F08D0B5F54B
:10584000706F05D0B5F5805F02D0B5F5885F00D1E7
:1058500004E040F2AE31DE48FAF7BEFC44EA05004F
:10586000A6F8480070BD70B504460D461646D948E6
:1058700084421DD0B4F1804F1AD0D748844217D04B
:10588000D648844214D0D648844211D0D5488442A8
:105890000ED0D54884420BD0D448844208D0D44896
:1058A000844205D0D348844202D0D348844200D1F8
:1058B00004E040F2C731C648FAF78EFC48F2FF0018
:1058C000284008B905B104E04FF47271C048FAF7F6
:1058D00083FC0EB1012E00D104E040F2C931BC4876
:1058E000FAF77AFC1EB1A0892843A08102E0A089C2
:1058F000A843A08170BD10B50446B648844217D0B5
:10590000B4F1804F14D0B448844211D0B3488442DB
:105910000ED0B34884420BD0B448844208D0B74874
:10592000844205D0B648844202D0B148844200D1B6
:1059300004E04FF47871A648FAF74EFC20894FF640
:10594000F8710840208110BD70B504460D46002650
:10595000A048844217D0B4F1804F14D09E488442AE
:1059600011D09E4884420ED09D4884420BD09F485F
:10597000844208D0A148844205D0A148844202D084
:105980009B48844200D104E040F2D1419048FAF7AC
:1059900023FC6DB1102D0BD0202D09D0302D07D058
:1059A000402D05D0502D03D0602D01D0702D00D199
:1059B00004E040F2D2418648FAF70EFC26894FF601
:1059C0008F7006402E43268170BD70B504460D468B
:1059D0008048844217D0B4F1804F14D07E4884426E
:1059E00011D07E4884420ED07D4884420BD07F483F
:1059F000844208D08148844205D08148844202D044
:105A00007B48844200D104E040F2F3317048FAF759
:105A1000E3FB2DB1102D03D0202D01D0302D00D16E
:105A200004E04FF47D716A48FAF7D6FB2946204618
:105A3000FFF78AFF208940F00700208170BD2DE923
:105A4000F04104460D4616461F466248844217D070
:105A5000B4F1804F14D06048844211D05F48844232
:105A60000ED05F4884420BD06048844208D063481F
:105A7000844205D06248844202D05D48844200D10D
:105A800004E040F20F415248FAF7A6FB502D03D034
:105A9000602D01D0402D00D104E04FF482614C48CC
:105AA000FAF79AFB0EB1022E00D104E040F2114148
:105AB0004748FAF791FB0F2F00DC04E040F2124157
:105AC0004348FAF789FB602D06D13B460122314657
:105AD0002046FFF7CCF905E03B460122314620463F
