:020000040800F2
:100000008010002029220008B9210008BB21000827
:10001000BD210008BF210008C12100080000000028
:10002000000000000000000000000000C3210008E4
:10003000C521000800000000C7210008C9210008F0
:1000400045220008492200084D22000851220008DC
:1000500055220008592200085D220008612200088C
:1000600065220008692200086D220008712200083C
:1000700075220008792200087D22000881220008EC
:1000800085220008892200088D220008912200089C
:1000900095220008992200089D220008A12200084C
:1000A000A5220008A9220008AD220008B1220008FC
:1000B000B5220008B9220008BD220008C1220008AC
:1000C000C5220008C9220008CD220008D12200085C
:1000D000D5220008D9220008DD220008E12200080C
:1000E000E5220008E9220008ED220008F1220008BC
:1000F000F5220008F9220008590E0008FD22000828
:100100000123000805230008092300080D23000827
:100110001123000815230008192300081D230008D7
:100120002123000825230008292300082D23000887
:100130003123000835230008392300083D23000837
:100140004123000845230008492300084D230008E7
:100150005123000855230008592300085D23000897
:100160006123000865230008692300086D23000847
:10017000712300087523000879230008000000009F
:100180007D2300088123000838B50400002520786D
:10019000C0076FD5DFF82406006810F00C000428B3
:1001A0000BD0DFF81806006810F00C0008280ED1FC
:1001B000DFF80C060068400209D5DFF80806006881
:1001C000800357D56068002854D10120CFE16068D2
:1001D000B0F5803F08D1DFF8EC05006850F48030BE
:1001E000DFF8E015086024E06068B0F5A02F10D1BA
:1001F000DFF8D005006850F48020DFF8C8150860EB
:10020000DFF8C005006850F48030DFF8B8150860EA
:100210000FE0DFF8B005006830F48030DFF8A41597
:100220000860DFF8A005006830F48020DFF894153E
:100230000860606800280ED000F017FB0500DFF8AA
:1002400084050068800315D400F00FFB401B65286F
:10025000F5D303208BE100F008FB0500DFF864050F
:100260000068800306D500F000FB401B6528F5D32D
:1002700003207CE1207880072BD5DFF8400500685B
:1002800010F00C0F0BD0DFF83405006810F00C00F4
:10029000082837D1DFF828050068400232D4DFF89B
:1002A00024050068800704D5E068012801D00120FA
:1002B0005DE1DFF8100500685FF0F851B1FA81F1F7
:1002C00030F0F800226912FA01F10843DFF8F41463
:1002D00008602078000762D5606900284CD00120B2
:1002E000DFF8E414086000F0C0FA0500DFF8DC0471
:1002F0000068800753D400F0B8FA401B0328F5D3F8
:10030000032034E1E068002823D00120DFF8C01486
:10031000086000F0AAFA0500DFF8A804006880076A
:1003200006D400F0A2FA401B0328F5D303201EE1F7
:10033000DFF8900400685FF0F851B1FA81F130F015
:10034000F800226912FA01F10843DFF87814086016
:10035000BFE70020DFF87814086000F086FA050097
:10036000DFF8600400688007B3D500F07EFA401B18
:100370000328F5D30320FAE00020DFF84C140860CE
:1003800000F073FA0500DFF844040068800706D522
:1003900000F06BFA401B0328F5D30320E7E0207838
:1003A00040077CD500200090DFF82804006850F05A
:1003B0008050DFF820140860DFF81804006810F09F
:1003C000805000900098DFF81004006850F48070AE
:1003D000DFF80414086000F048FA0500DFF8F803BD
:1003E0000068C00506D400F040FA401B0328F5D38E
:1003F0000320BCE0A068012808D1DFF8E003006812
:1004000050F00100DFF8D413086023E0A06805284D
:1004100010D1DFF8C803006850F00400DFF8BC1307
:100420000860DFF8B803006850F00100DFF8AC1393
:1004300008600FE0DFF8A403006840084000DFF820
:100440009C130860DFF89403006830F00400DFF8C4
:100450008C130860A068002810D000F006FA050090
:10046000DFF878030068800719D400F0FEF9401B1C
:1004700041F289318842F3D3032078E000F0F5F9A6
:100480000500DFF858030068800708D500F0EDF993
:10049000401B41F289318842F3D3032067E0A06911
:1004A000002863D0DFF81403006810F00C0008285F
:1004B0005AD0A069022844D10020DFF82413086034
:1004C00000F0D3F90500DFF8FC020068800106D5D2
:1004D00000F0CBF9401B0328F5D3032047E0DFF8F9
:1004E0000403B0FA80F14FF44040B0FA80F2F020FB
:1004F000B0FA80F0E369256A2B43656A15FA01F1C9
:100500001943A36A5B085B1E13FA02F21143E26A05
:1005100012FA00F00843DFF8A81208600120DFF8A3
:10052000C012086000F0A1F90500DFF89802006829
:1005300080011BD400F099F9401B0328F5D3032058
:1005400015E00020DFF89812086000F08EF9050031
:10055000DFF870020068800108D500F086F9401BC2
:100560000328F5D3032002E0012000E0002032BD83
:1005700070B504000D000026DFF86C02006810F072
:100580000F00A8420BD2DFF860020570DFF85802B6
:10059000006810F00F00A84201D00120C0E02078D0
:1005A000800709D5DFF81402006830F0F000A16878
:1005B0000843DFF8081208602078C00772D5606829
:1005C000012806D1DFF8FC010068800315D4012062
:1005D000A6E06068022802D06068032806D1DFF830
:1005E000E4010068800108D4012099E0DFF8D4011B
:1005F0000068800701D4012092E0DFF8C0010068A4
:100600008008800061680843DFF8B011086000F0DE
:100610002CF90600606801280FD1DFF8A0010068FE
:1006200010F00C0004283DD000F01FF9801B41F2AF
:1006300089318842F1D3032072E0606802280FD12B
:10064000DFF87801006810F00C0008282AD000F0CC
:100650000CF9801B41F289318842F1D303205FE01D
:10066000606803280FD1DFF85401006810F00C0017
:100670000C2817D000F0F9F8801B41F2893188422C
:10068000F1D303204CE0DFF83401006810F00C0FC8
:1006900008D000F0EAF8801B41F289318842F2D399
:1006A00003203DE0DFF84001006810F00F008542B4
:1006B0000BD2DFF834010570DFF82C01006810F070
:1006C0000F00A84201D001202AE02078400707D57A
:1006D0003A48006830F4E050E16808433749086060
:1006E0002078000708D53548006830F4604021695B
:1006F00050EAC1003149086000F017F82F49096835
:100700005FF07062B2FA82F2384B11F0F001D14022
:10071000C95CC84036490860002000F08EF800200F
:1007200070BD01203349086070470020002000217F
:1007300000202248006810F00C00002804D0042893
:1007400004D0082804D034E02B4833E02B4831E0B3
:100750001B48006810F03F001949096849020DD58F
:1007600017490968254AB2FBF0F047F6C0721140FC
:100770001C4AB2FA82F2D14048430CE010490968A1
:100780001D4AB2FBF0F047F6C0721140154AB2FAAA
:1007900082F2D14048430A49096811F440314FF4CC
:1007A0004042B2FA82F2D140491C4900B0FBF1F05C
:1007B00000E0114870470E48006870470838024052
:1007C0000438024000380240800E4742743802402C
:1007D000000047424038024000700040703802403C
:1007E000600047420000FE03003C0240182200085F
:1007F0000C0000204C0047420024F40000127A0054
:1008000080B52348006850F40070214908602048F2
:10081000006850F480601E4908601D48006850F46C
:1008200080701B490860032000F09CF8002000F055
:1008300004F800F0DCF8002002BD10B504001548F3
:1008400000684FF47A71B0FBF1F000F0A5F80022D7
:1008500021005FF0FF3000F089F8002010BD0E4845
:100860000068401C0C49086070470B4800687047DE
:1008700031B5FFF7FAFF0400009D15F1010F00D01C
:100880006D1CFFF7F2FF001BA842FAD331BD000038
:10089000003C02400C0000207400002010F0070112
:1008A000484800684FF6FF021040474A52EA0121CB
:1008B000084344490860704742480068C0F302207A
:1008C0007047012110F01F029140404A40B2400998
:1008D00042F82010704740B2002808D509013C4A70
:1008E00040B210F00F00801800F8041C03E009016A
:1008F000384A40B28154704710B410F00700D0F16C
:100900000703052B01D3042301E0D0F10703041DE5
:10091000072C01D2002000E0C01E012414FA03F3CA
:100920005B1E19408140012313FA00F0401E104065
:10093000084310BC704780B5411EB1F1807F01D3E0
:1009400001200EE0401E244908600F215FF0FF30B7
:10095000FFF7C1FF002021490860072020490860F7
:10096000002002BD80B5FFF799FF01BD70B50400FE
:100970000D0016000020FFF79FFF32002900FFF74F
:10098000BBFF0100200040B2FFF7A5FF70BD80B59E
:1009900040B2FFF796FF01BD80B5FFF7CCFF02BD67
:1009A000042806D10E48006850F004000C49086085
:1009B00005E00B48006830F0040009490860704702
:1009C000000000000CED00E00000FA0500E100E08E
:1009D00018ED00E000E400E014E000E018E000E0C2
:1009E00010E000E080B500F001F801BD704780B56F
:1009F0000520FFF7B7FF002200217FF00B00FFF773
:100A0000B5FF002200217FF00A00FFF7AFFF0022B0
:100A100000217FF00900FFF7A9FF002200217FF0ED
:100A20000400FFF7A3FF002200217FF00300FFF77F
:100A30009DFF002200217FF00100FFF797FF0022B9
:100A400000215FF0FF30FFF791FF01BD00B587B0D7
:100A500000200090DFF82006006850F48070DFF876
:100A600018160860DFF81006006810F48070009017
:100A7000009800200090DFF80006006850F00800A1
:100A8000DFF8F4150860DFF8F005006810F00800E2
:100A90000090009800200090DFF8DC05006850F01E
:100AA0000800DFF8D4150860DFF8CC05006810F006
:100AB000080000900098202001900220029002205F
:100AC00004900320059001A9DFF8B00500F0F6FAC4
:100AD000082001900120029002200490002005903F
:100AE00001A9DFF89C0500F0E9FA802001900120BF
:100AF0000290022004900020059001A9DFF88005F3
:100B000000F0DCFA00220821DFF8740500F0CCFBCD
:100B100001228021DFF8680500F0C6FB07B000BDA8
:100B200000B58DB000200090DFF85805006850F047
:100B30000200DFF850150860DFF84805006810F083
:100B4000020000900098FFF781FFDFF83C05DFF816
:100B50003C1508600520DFF8341548600020DFF8F8
:100B60002C1588604FF6FF70DFF82015C860002054
:100B7000DFF818150861DFF8140500F0BBFB4FF42F
:100B80008050089008A9DFF8040500F00CFC302024
:100B900001904FF6FF70029002200390082004900D
:100BA000002005900020069000200790002201A957
:100BB000DFF8D80400F0C8FB00220021DFF8C804E9
:100BC00000F02AFD002200212E20FFF7CFFE2E206C
:100BD000FFF7DDFE7FF00200DFF8B014096808615E
:100BE000DFF8A8040068C06850F00200DFF89C1429
:100BF0000968C860DFF894040068406C50F4004055
:100C0000DFF8881409684864DFF8800400F08EFB80
:100C10000DB000BD81B00068DFF86C14884210D1BF
:100C200000200090DFF85C04006850F00200DFF85C
:100C300054140860DFF84C04006810F002000090C3
:100C4000009801B0704700002DE9FE4304000D003C
:100C500016001F00DFF838040078002840F0F38009
:100C6000002C0BD50120DFF82C144870012208213C
:100C7000DFF80C0400F018FB644209E00020DFF804
:100C80001414487000220821DFF8F40300F00CFB74
:100C9000012C0ED15FF0FF30DFF8F813486102201D
:100CA000DFF8F01308704FF47A70DFF8E81348604B
:100CB000AEE0002C00F0AC80DFF8DC030068062119
:100CC000B0FBF1F000EE100AB8EE400ADFED5F0A6B
:100CD00020EE200A00EE907AF8EE600A80EE200AFC
:100CE000BDEEC00ADFF8AC0380ED040ADFF8A8030C
:100CF00000680621B0FBF1F000F094FDDFF89C23C2
:100D0000DFF89C3300F09CFD0022DFF8983300F000
:100D100069FE00F093FF00F0D9FF8046894600EE9F
:100D2000105AB8EE400ADFED4A0A80EE800A10EE53
:100D3000100A00F0CBFF41EC100B00F0EFFF51EC7C
:100D4000100B42464B4600F07BFD0022DFF8543387
:100D500000F048FE01F062F8DFF83813486007FB46
:100D600007F000EE100AB8EE400A00EE905AF8EED6
:100D7000600A9FED381A60EE810AB2EE041AC0EEE6
:100D8000810A80EE200ABCEEC00A8DED010A0198AE
:100D9000002801D10120019006FB04F07119B0FB7D
:100DA000F1F000900098002801D1012000900198F6
:100DB0000099884204D30098001BB649C86006E039
:100DC00001986843B0FBF6F04042B249C860B148B0
:100DD000C068002803D15FF0FF30AE49C860AD485D
:100DE000C0680019AB498860AA480069A9494968E8
:100DF000884207DBA7480069A64948600320A54947
:100E0000087002E00120A34908700020A149486150
:100E100001209F4908709D480068406AADF80800AD
:100E2000BDF808009B49496811FA80F097490968A4
:100E3000486301220021944800F0EEFB002280214B
:100E40008F4800F031FABDE8F783000072D9203CEA
:100E500070594443CF0F493E10B582B00020ADF821
:100E60000000002489480068C068800740F10281C2
:100E70007FF0020085490968086184480068406A7B
:100E8000ADF80000BDF800008249496811FA80F011
:100E90007E490968486384480078401C824908708C
:100EA00081480078022840F0E58000207E490870E3
:100EB00078480078002806D0022800F099801BD3DB
:100EC00003286FD0D3E000207849086000207849DB
:100ED0000860002200216C4800F09EFB7FF00200B9
:100EE0006A490968086101228021654800F0DCF93F
:100EF000002067490870BAE06C480068401C6B49E4
:100F0000086064484078002805D16A480068401CA1
:100F10006849086004E067480068401E6549086049
:100F20005C484069401C5B4948615A4840685949DF
:100F300049685F4A126812EB4101564A52699200B1
:100F4000521C91FBF2F1441A524840685849096812
:100F5000504A526911EB40009100491C90FBF1F29C
:100F600001FB1200524908605048006849498968ED
:100F7000884207D34748C06846494861022045492E
:100F800008700EE043480069A4B2A04209DB4A4859
:100F900004804048046900204549086003203D4919
:100FA000087064E041480068401C404908603948C6
:100FB0004078002805D13F480068401C3D49086042
:100FC00004E03C480068401E3A4908603148046922
:100FD000364800682F498968884208D32D48C06880
:100FE0002C4948613448048802202A4908703EE0B0
:100FF0002E480068401C2D4908602648407800288B
:1010000005D12C480068401C2A49086004E02948A2
:101010000068401E274908601E484069401C1D4961
:1010200048611C4840681B494968214A126812EB14
:101030004101184A52699200521C91FBF2F1441A84
:10104000144840681A490968124A526911EB400075
:101050009100491C90FBF1F201FB12001449086059
:101060000C484069002802D400200A490870A4B244
:101070000848446013BD00003038024000200240A0
:10108000000C0240443802400004014014000020DB
:101090007A000020500000200C0000206F1283C056
:1010A000CAA1E53F000024407B0000206C00002026
:1010B00070000020680000207800002078B4002430
:1010C00000230024002237E00825EDB212F00306C9
:1010D000F6B2B600B5402C43DFF8E051960845F86B
:1010E0002640DFF8DC4124689C434D68ED0300D5C1
:1010F0001C43DFF8CC512C60DFF8C84124689C43C6
:101100004D68AD0300D51C43DFF8B8512C60DFF803
:10111000B84124689C434D68ED0200D51C43DFF8BC
:10112000A8512C60694C24689C434D68AD0200D5E1
:101130001C43664B1C60521C102A80F0AA800123BD
:1011400013FA02F40B682340A342F4D14C68022C3A
:1011500002D04C68122C15D1D40810EB8404246AF8
:101160000F2512F00706F6B2B600B540AC430D6984
:1011700012F00706F6B2B600B5402C43D50810EBC6
:1011800085052C62046803251600F6B27600B5408A
:10119000AC430D7915F003051600F6B27600B540A4
:1011A0002C4304604C68012C08D04C68022C05D0FC
:1011B0004C68112C02D04C68122C17D1846803257E
:1011C0001600F6B27600B540AC43CD681600F6B214
:1011D0007600B5402C438460446801259540AC43BB
:1011E0004D68C5F3001595402C434460C468032541
:1011F0001600F6B27600B540AC438D681600F6B224
:101200007600B5402C43C4604C68E40093D50024BC
:1012100000942F4C246854F480442D4D2C602C4CA9
:10122000246814F480440094009C244C950854F8DD
:1012300025400F2512F00306F6B2B600B540AC43C8
:10124000244DA84201D100253FE7234DA84201D1FA
:1012500001253AE7214DA84201D1022535E7204D6D
:10126000A84201D1032530E71E4DA84201D1042533
:101270002BE71D4DA84201D1052526E71B4DA842AD
:1012800001D1062521E71A4DA8427FF41DAF07259D
:101290001BE771BC7047006989B2084201D0012088
:1012A00000E0002040B2704752B2002A02D089B25A
:1012B000816102E089B20904816170470838014008
:1012C000003C0140043C0140083C01400C3C014012
:1012D000443802400000024000040240000802407E
:1012E000000C0240001002400014024000180240AE
:1012F000001C024010B50400002C01D1012014E0B4
:1013000094F93900002805D1002084F83800200025
:10131000FFF780FC022084F83900211D206800F0CE
:10132000CEF8012084F83900002010BD022180F899
:1013300039100168096851F001010268116001214A
:1013400080F839100020704710B5040094F9380077
:10135000012801D1022025E0012084F83800022074
:1013600084F83900002A06D0042A08D0082A0AD0B6
:101370000C2A0CD00FE0206800F05EF90BE020682A
:1013800000F00FF907E0206800F08CF903E0206816
:1013900000F0C2F9FFE7012084F83900002084F84A
:1013A0003800002010BD10B50400002094F938006A
:1013B000012801D1022081E0012084F838000220B8
:1013C00084F839002068806830F0770030F47F407E
:1013D000226890600868002855D0102858D020282E
:1013E0005BD030285ED0402843D050282DD06028D4
:1013F00035D070280DD0B0F5805F03D0B0F5005F18
:1014000016D054E020688068C008C0002168886059
:101410004DE0CB684A688968206800F0F6F92068DA
:10142000806830F0770050F07700216888603EE0F7
:10143000CB684A688968206800F0E7F9206880680E
:1014400050F480402168886031E0CA6849682068AB
:1014500000F0A8F95021206800F0CDF927E0CA6813
:101460004968206800F0B2F96021206800F0C3F9F3
:101470001DE0CA684968206800F094F9402120689E
:1014800000F0B9F913E00021206800F0B4F90EE093
:101490001021206800F0AFF909E02021206800F059
:1014A000AAF904E03021206800F0A5F9FFE7012047
:1014B00084F83900002084F83800002010BD002294
:1014C0000268DFF8B432984212D0B0F1804F0FD0EA
:1014D000DFF8A83298420BD0DFF8A432984207D048
:1014E000DFF8A032984203D0DFF89C32984201D155
:1014F000012300E00023DBB2002B03D032F07002A6
:101500004B681A43DFF8703298422AD0B0F1804F0E
:1015100027D0DFF86832984223D0DFF8643298424F
:101520001FD0DFF8603298421BD0DFF85C3298425F
:1015300017D0DFF85832984213D0DFF8543298426F
:101540000FD0DFF8503298420BD0DFF84C3298427F
:1015500007D0DFF84832984203D0DFF8443298428F
:1015600001D1012300E00023DBB2002B03D032F4D1
:101570004072CB681A4302608A68C2620A6882625B
:101580007D4A904202D0804A904201D1012200E07F
:101590000022D2B2002A01D0096901630121416110
:1015A000704730B4002200230024026A32F0100297
:1015B0000262036A4468826932F4E04232F44072A3
:1015C0000D6852EA052233F020038D6853EA0513B3
:1015D000694DA84202D06C4DA84201D1012500E01E
:1015E0000025EDB2002D10D033F08003CD6853EA12
:1015F000051333F0400334F4806434F400644D691F
:1016000054EA85048D6954EA85044460826149681E
:101610008163036230BC704710B4002301238B4008
:10162000046A34EA03030362036A12FA01F11943FC
:10163000016210BC7047000030B400220023002477
:10164000026A520852000262036A4468826932F0F8
:101650007002920892000D682A4333F002038D68ED
:101660002B43454DA84202D0474DA84201D1012548
:1016700000E00025EDB2002D0DD033F00803CD6859
:101680002B4333F0040334F4807434F400744D6954
:101690002C438D692C434460826149684163036235
:1016A00030BC704730B4002200230024026A32F4B8
:1016B00080720262036A4468C26932F07002920862
:1016C00092000D682A4333F400738D6853EA0523B2
:1016D000294DA84202D02C4DA84201D1012500E09D
:1016E0000025EDB2002D10D033F40063CD6853EA2D
:1016F000052333F4806334F4805434F400544D698A
:1017000054EA05148D6954EA05144460C2614968BD
:10171000C163036230BC704730B400220023002450
:10172000026A32F480520262036A4468C26932F487
:10173000E04232F440720D6852EA052233F400535D
:101740008D6853EA05330C4DA84202D00E4DA842D5
:1017500001D1012500E00025EDB2002D04D034F4C4
:1017600080444D6954EA85144460C261496801644B
:10177000036230BC704700000000014000040040DC
:1017800000080040000C00400004014000400140FF
:10179000004401400048014000180040001C004087
:1017A0000020004010B400230024046A036A5B0890
:1017B0005B000362836933F0F00353EA021334F0F1
:1017C0000A040C438361046210BC704710B4002308
:1017D0000024036A33F0100303628369046A33F45C
:1017E000704353EA023334F0A00454EA01148361D5
:1017F000046210BC70470022826832F0700289B225
:1018000051F007010A438260704710B400248468D5
:1018100034F47F44114351EA03210C43846010BC2B
:1018200070470000010000BF09D0B0FA80F1884085
:10183000C91CC1F58461090501EBD0214005704741
:10184000B0B581EA030C0CF0004C40F2FF7515EACC
:1018500011541DBF15EA1357AC42AF4239E0E419E9
:1018600023EA455343F48013C90241F0004141EAA1
:10187000505EC7021100A7FB020200284FF00000D3
:10188000EEFB01204FF00001E3FB072118BF42F0FF
:101890000102401800214941E3FB0E01A4F58064D8
:1018A0000F0302D252004041494154F101046CDD62
:1018B000470872F1004250F1000051EB0451A1F5CC
:1018C00080115CBF41EA0C01B0BD4CEA055100201B
:1018D000B0BD05EA1357AC4214BFAF4241E050EA35
:1018E000410E1CBF52EA430E02E061460020B0BD2B
:1018F00024423C441BD15FEA070EF6D0090302BF25
:1019000001460020AEF1140EB1FA81F7AEEB0704E8
:1019100001FA07FE0C37C7F1200100FA07F7C840AB
:101920004EEA000E23EA455343F48013A2E733F056
:101930000043B3FA83F704BFB2FA82FE77440B3F49
:10194000E41BB7F1200E2FBF02FA0EF3BB40C7F124
:10195000200E22FA0EFE38BF43EA0E03BA40641C82
:1019600082E750EA410E14BF52EA430E6FF00001C5
:101970004FF4001717EB430F8ABF194617EB410FBF
:10198000B5E74CEA05510020B0BDD4F10104B4F133
:1019900020070FDAC4F12007520828BF42F00102E5
:1019A00010FA07F501FA07F7E1BF2A43E040384390
:1019B000E1400FE0352C98DCC7F1200452EA4002E8
:1019C00020FA07F218BF42F0010231FA07F0A140F5
:1019D0000A43002172F1004250F1000051EB0C016A
:1019E000B0BD00002DE9F04140F2FF7581EA030C23
:1019F0000CF0004C15EA11541DBF15EA1357AC4208
:101A0000AF42E9E0BC41C1F31301C3F31303801AF1
:101A1000994143F4801304D2641E40004941801868
:101A20005941C90241EA5051B1FBF3F603FB1611CB
:101A3000A2FB0675D7EBC020A94102D2761E801802
:101A40005941C90241EA5051B1FBF3FE03FB1E119B
:101A5000A2FB0E75D7EBC020A94103D2AEF1010E57
:101A600080185941890241EA9051760546EA8E2E46
:101A7000B1FBF3F603FB1611A2FB0675D7EB802032
:101A8000A94102D2761E80185941C90241EA50513B
:101A90004EEA060EB1FBF3F603FB1611A2FB067528
:101AA000D7EBC020A94102D2761E80185941C90245
:101AB00041EA5051B1FBF3F703FB1711A2FB0735C5
:101AC000D3EBC020A94167F100070CBF004247F0EB
:101AD000010766F3D5274FEA1E31B80814F5806474
:101AE00014DDBD0775F1004250EB0E5051EB04516F
:101AF00011F5801F5CBF41EA0C01BDE8F0814CF09C
:101B00007F6141F0E0410020BDE8F081BD076D0834
:101B100040EA0E5041F48011D4F10104B4F12006E2
:101B20000ADAC4F120060200E04001FA06F3E140BF
:101B30001843B24015430EE0342C14DCC6F12004E7
:101B400045EA40056D0820FA06F2154321FA06F031
:101B5000A1400D43002175F1004250F1000051EB0E
:101B60000C01BDE8F08100205FEA0C01BDE8F081C6
:101B7000CFB992185B41B3FA83F704BFB2FA82F689
:101B8000BF190B3FB7F120062FBF02FA06F3BB4087
:101B9000C7F1200622FA06F638BF3343BA401CB11B
:101BA000E419641E2FE77F4231F00041B1FA81F45D
:101BB00004BFB0FA80F6A4190B3CB4F120062FBF85
:101BC00000FA06F1A140C4F1200620FA06F638BF5B
:101BD0003143A0403C1B16E7AC421ABF05EA13573D
:101BE000AF4214E050EA41061CBF52EA4306BFE789
:101BF00050EA4107304661461CBF41EA0551BDE845
:101C0000F08152EA430C08BFC143BDE8F0810020D7
:101C10004FF4001616EB410F98BF16EB430F08BFA9
:101C200016EB410F24BFC14305E016EB430F0CBF79
:101C300061464CEA0551BDE8F08100004FEAF17CB5
:101C4000BCF1E04C2CBFBCF5001F11E05FEA4C0C6E
:101C500034BFBCF17F5F2EE05FEA9C0C4FEA0C1CA6
:101C60004FEA3C0CC10071F100414CEB50707047E1
:101C7000C90241EA5051C00218BF41F0010141F0D0
:101C800000414FEA6C50C0F10900212810D240EA0F
:101C9000CC7CCCF1200C11FA0CF070F10040CCF1AE
:101CA000200C21FA0CF00CF0004C40EB0C007047BB
:101CB0004FEACC707047490011F5001F04D84FEA75
:101CC000CC10FF30C0057047C81770475FF0FF0C9D
:101CD0001CEAD05114BF614506E0C110400721F055
:101CE000E04101F16051704779B900F00041000214
:101CF0000AD0B0FA80FC00FA0CF001F16051A1EBBF
:101D00000C5101EBD0214005704741020CBF40F45B
:101D1000E0016FF0000100207047000051EC100B53
:101D200010B500F003F841EC100B10BD40F2FF7C41
:101D30000B0D4DD0634566D230B421EA035141F416
:101D4000801103F2FD3C5FEA5C0C01D300184941AD
:101D5000890041EA907180004FF440140023E202B0
:101D6000D50AB1F5100107D46D081DD2091B6419FD
:101D700000184941491BF7D56D080AD20919641B9F
:101D800000184941491BEFD56D08F7D301E052080F
:101D900017D0C01861419B1AAC4100184941801A04
:101DA000A941F4D452080AD0C01AA1419B186C4131
:101DB00000184941801AA941E9D45208F4D15B1CAA
:101DC0006C4161084FEA330001EB0C5130BC7047A5
:101DD00050EA0103FBD030B4B1FA81F311B9B0FA83
:101DE00080F41B190B3BB3F120042FBF00FA04F160
:101DF0009940C3F1200420FA04F438BF21439840ED
:101E0000D3F101039DE76345E1D011F5801FDED8D2
:101E100050EA4101DBD0D94300F026B8F446400D2A
:101E200040EAC120490006D200F00EF8004248BF47
:101E30006FF00040604700F007F84FF00041884223
:101E40008CBF08464042604740F00040490DA1F574
:101E50008061491C05D4D1F11F0154BFC840C0178F
:101E600070474FF0000070471FB500F003F82121C4
:101E700001601FBD014800F003B800001000002001
:101E80007047000000B593B000200090364800680D
:101E900050F08050344908603348006810F080509A
:101EA00000900098002000903048006850F4804076
:101EB0002E4908602D48006810F48040009000987A
:101EC000012006905FF48030079002200C905FF4B0
:101ED00080000D9008200E904FF4A8700F90022003
:101EE00010900720119006A8FEF74EF90F200190E0
:101EF00002200290002003904FF4A05004904FF471
:101F000080500590052101A8FEF732FBFEF709FC81
:101F1000FEF751FC4FF47A71B0FBF1F0FEF73CFD97
:101F20000420FEF73DFD002200215FF0FF30FEF7A8
:101F30001DFD13B000BD80B5FEF762FCFFF7A2FFE8
:101F400000F01CF8FEF7ECFD00F074F80128FBD15E
:101F50000748036807480268074801684FF4FA40D9
:101F6000FEF772FEF0E700004038024000700040CB
:101F700000000020080000200400002000B587B009
:101F8000002000903848006850F010003649086082
:101F90003548006810F01000009000980020009074
:101FA0003148006850F010002F4908602E48006842
:101FB00010F0100000900098012001900020029085
:101FC000012003900020059001A92848FFF776F82A
:101FD0000220019000200290012003900020059033
:101FE00001A92248FFF76AF804200190002002901E
:101FF000012003900020059001A91C48FFF75EF81E
:1020000008200190002002900120039000200590FC
:1020100001A91648FFF752F8102001900020029005
:10202000012003900020059001A91048FFF746F811
:1020300007B000BD80B501210C48FFF72CF900283E
:1020400010D11420FEF714FC01210848FFF723F9F2
:10205000002807D101210548FFF71DF90028F9D014
:10206000012000E0002002BD303802400010024094
:102070001248006850F47000104908601048006869
:1020800050F001000E49086000200E4908600C481D
:1020900000680D4908400A4908600C480C4908606E
:1020A0000748006830F4802005490860002009498D
:1020B00008605FF0006008490860704788ED00E044
:1020C0000038024008380240FFFFF6FE10300024BE
:1020D000043802400C38024008ED00E019E050F8E6
:1020E000041BCB0744BFA9F101035918121F002399
:1020F000042A41F8043BF9D25FEA827C0B4604D5FE
:102100004FF0000CA1F800C09B1CD10744BF002178
:10211000197050F8042B002AE1D1704710B450F820
:10212000041B79B10268436812180830DC0744BF09
:10213000A9F10104E31852F8044B43F8044B091FBA
:10214000F9D1ECE710BC704710B507497944183154
:10215000064C7C44163404E00A68081D5118884770
:102160000146A142F8D110BD2C0000004C00000037
:102170004EF68851CEF20001086840F47000086005
:10218000BFF34F8FBFF36F8F4FF00070E1EE100A77
:102190007047000049FFFFFF6800000014000020A6
:1021A0000000000079FFFFFF14000000D8010000CC
:1021B00000000020000000007047FEE7FEE7FEE799
:1021C000FEE770477047704780B5FEF748FBFEF7A3
:1021D00009FC01BD00F00BF8002801D0FFF7B4FFA7
:1021E0000020C046C046FFF7A6FE00F002F801201E
:1021F000704700F001B800000746384600F002F8CA
:10220000FBE7000080B5C046C046024A1100182016
:10221000ABBEFBE72600020000000000000000004B
:1022200001020304060708090148804701480047E6
:102230007120000839220008C046C046FFF798FF09
:10224000FFF7C8FFFFF7FEBFFFF7FEBFFFF7FEBFB8
:10225000FFF7FEBFFFF7FEBFFFF7FEBFFFF7FEBFB2
:10226000FFF7FEBFFFF7FEBFFFF7FEBFFFF7FEBFA2
:10227000FFF7FEBFFFF7FEBFFFF7FEBFFFF7FEBF92
:10228000FFF7FEBFFFF7FEBFFFF7FEBFFFF7FEBF82
:10229000FFF7FEBFFFF7FEBFFFF7FEBFFFF7FEBF72
:1022A000FFF7FEBFFFF7FEBFFFF7FEBFFFF7FEBF62
:1022B000FFF7FEBFFFF7FEBFFFF7FEBFFFF7FEBF52
:1022C000FFF7FEBFFFF7FEBFFFF7FEBFFFF7FEBF42
:1022D000FFF7FEBFFFF7FEBFFFF7FEBFFFF7FEBF32
:1022E000FFF7FEBFFFF7FEBFFFF7FEBFFFF7FEBF22
:1022F000FFF7FEBFFFF7FEBFFFF7FEBFFFF7FEBF12
:10230000FFF7FEBFFFF7FEBFFFF7FEBFFFF7FEBF01
:10231000FFF7FEBFFFF7FEBFFFF7FEBFFFF7FEBFF1
:10232000FFF7FEBFFFF7FEBFFFF7FEBFFFF7FEBFE1
:10233000FFF7FEBFFFF7FEBFFFF7FEBFFFF7FEBFD1
:10234000FFF7FEBFFFF7FEBFFFF7FEBFFFF7FEBFC1
:10235000FFF7FEBFFFF7FEBFFFF7FEBFFFF7FEBFB1
:10236000FFF7FEBFFFF7FEBFFFF7FEBFFFF7FEBFA1
:10237000FFF7FEBFFFF7FEBFFFF7FEBFFFF7FEBF91
:10238000FFF7FEBFB80B000064000000640000000F
:082390000024F400000000002D
:040000050800223994
:00000001FF
